:020000040800F2
:1000000000000220253E0008FD060008FF0600084B
:1000100001070008030700080507000800000000AA
:1000200000000000000000000000000007070008BA
:1000300009070008000000000B0700080D07000872
:10004000753E0008753E0008753E0008753E0008C4
:10005000753E0008753E0008753E0008753E0008B4
:10006000753E0008753E0008753E0008753E0008A4
:10007000753E0008753E0008753E0008753E000894
:10008000753E0008753E0008753E0008753E000884
:10009000753E0008753E0008753E0008753E000874
:1000A000150700082D070008753E0008753E00087A
:1000B000753E0008753E0008753E0008753E000854
:1000C000753E0008753E0008753E0008753E000844
:1000D000753E0008753E0008753E0008753E000834
:1000E0003D070008753E0008753E0008753E000893
:1000F000753E0008753E0008753E0008753E000814
:10010000753E0008753E0008753E0008753E000803
:10011000753E0008753E0008753E0008753E0008F3
:10012000753E0008753E0008753E0008753E0008E3
:10013000753E0008753E0008753E0008753E0008D3
:10014000753E0008753E0008753E0008753E0008C3
:10015000753E0008753E0008753E0008753E0008B3
:10016000753E0008753E0008753E0008753E0008A3
:10017000753E0008753E0008753E0008753E000893
:10018000753E0008753E0008753E0008753E000883
:10019000753E000800000000753E0008753E00082E
:1001A000753E0008753E0008753E0008753E000863
:1001B000753E0008753E0008753E0008753E000853
:1001C000753E0008753E0008753E0008753E000843
:0801D000753E0008753E0008B1
:1001D80010B5054C237833B9044B13B10448AFF379
:1001E80000800123237010BD2C00002000000000B7
:1001F800D03E000808B5034B1BB103490348AFF3D1
:10020800008008BD0000000030000020D03E00083B
:100218007BB972B90029BEBF00204FF0004106E04B
:1002280008BF00281CBF6FF000414FF0FF3000F0FE
:10023800B5B9ADF1080C6DE904CE002909DB002B36
:100248001ADB00F04DF8DDF804E0DDE9022304B024
:100258007047404261EB4101002B1BDB00F040F886
:10026800DDF804E0DDE9022304B0404261EB41011E
:10027800524263EB43037047524263EB430300F07F
:100288002FF8DDF804E0DDE9022304B0404261EB19
:1002980041017047524263EB430300F021F8DDF857
:1002A80004E0DDE9022304B0524263EB43037047E4
:1002B80053B94AB9002908BF00281CBF4FF0FF31C5
:1002C8004FF0FF3000F06AB9ADF1080C6DE904CECB
:1002D80000F006F8DDF804E0DDE9022304B0704719
:1002E8002DE9F047089D0C46002B4ED194468C45CD
:1002F8008646B2FA82F262D94AB1C2F1200391402D
:1003080020FA03F30CFA02FC194300FA02FE4FEA42
:100318001C471FFA8CF6B1FBF7F44FEA1E4307FBA4
:10032800141143EA014304FB06F199420AD91CEB74
:10033800030304F1FF3080F01281994240F20F81EB
:10034800023C6344591A1FFA8EF3B1FBF7F007FB1E
:10035800101143EA014300FB06F69E420AD91CEB42
:10036800030300F1FF3180F0FC809E4240F2F980E7
:10037800634402389B1B40EA044000211DB1D3406E
:100388000022C5E90032BDE8F0878B4205D90DB1DE
:10039800C5E9000100210846F5E7B3FA83F1002911
:1003A80046D1A34202D39042C0F0F080861A64EB93
:1003B80003030120002DE6D0C5E90063E3E7002A26
:1003C80040F09080A1EB0C044FEA1C481FFA8CF710
:1003D8000121B4FBF8F64FEA1E4308FB164443EA32
:1003E800044307FB06F0984208D91CEB030306F107
:1003F800FF3402D2984200F2CD8026461C1A1FFA1A
:100408008EF3B4FBF8F008FB104443EA044300FB06
:1004180007F79F4208D91CEB030300F1FF3402D20F
:100428009F4200F2B0802046DB1B40EA0640A5E769
:10043800C1F120068B4022FA06F71F4320FA06FC7A
:1004480004FA01F343EA0C03F44000FA01F8380C0B
:100458004FEA1349B4FBF0FE1FFA87FC00FB1E4469
:1004680049EA04440EFB0CF9A14502FA01F20AD943
:100478003C190EF1FF3A80F08480A14540F281805A
:10048800AEF1020E3C44A4EB09041FFA83F9B4FB55
:10049800F0F300FB134449EA044403FB0CFCA445B5
:1004A80007D93C1903F1FF3067D2A44565D9023B4F
:1004B8003C4443EA0E40A0FB0293A4EB0C049C428C
:1004C800CE469C4651D34ED055B1B8EB0E0364EBE3
:1004D8000C0404FA06F6CB401E43CC40C5E9006480
:1004E800002150E7C2F1200320FA03F10CFA02FCC4
:1004F80024FA03F394400C434FEA1C4800FA02FE26
:100508001FFA8CF7B3FBF8F008FB1031230C43EA11
:10051800014300FB07F1994208D91CEB030300F1E2
:10052800FF362CD299422AD9023863445B1AA4B206
:10053800B3FBF8F108FB113344EA034401FB07F36A
:10054800A34208D91CEB040401F1FF3613D2A342DD
:1005580011D902396444E41A41EA004139E70446F2
:10056800F0E6084606E7C845AED2B9EB020E63EBE3
:10057800070C0138A8E73146EDE7034699E730460E
:10058800D4E7D6467FE7634402384DE7064623465C
:1005980008460FE7023E634430E700BF704700BFDC
:1005A80072B6FEE700B595B03822002106A803F020
:1005B8005EFC00200190029003900490059000F0EA
:1005C8002BFF022306934FF48072099240220A926D
:1005D8000D930E9304220F925522109211931293A9
:1005E800139306A800F024FA80B90F23019303237C
:1005F8000293002303930493059304210DEB010058
:1006080000F0CCFC20B915B05DF804FBFFF7C8FF7B
:10061800FFF7C6FF08B500F0BDF9FFF7C3FF00F00C
:1006280027F801F00BFD01F0A1FB01F045FB01F0FB
:1006380075FB01F0CBFB02F019FF002000F0D8F8A1
:100648000121002000F0F8F808494FF4E1330B606D
:100658000020486008814881888100F059F910B964
:1006680002F01EFFFCE7FFF79BFF00BF48000020D9
:1006780030B58BB000240594069407940894099427
:100688001A4BDA6C42F00402DA64DA6C02F0040203
:100698000192019ADA6C42F02002DA64DA6C02F014
:1006A80020020292029ADA6C42F00102DA64DA6CF1
:1006B80002F001020392039ADA6C42F00202DA6451
:1006C800DB6C03F002030493049B094D22460121CD
:1006D800284600F07AFE01230593069307940894B0
:1006E80005A9284600F080FD0BB030BD001002407F
:1006F80000040048FEE7FEE7FEE7FEE7FEE7704776
:100708007047704708B500F055F908BD08B50348AB
:1007180001F0CAFE024801F0C7FE08BD2802002009
:10072800F800002008B5024801F0BEFE08BD00BF71
:100738002802002008B5002000F0C2F808BD00001B
:1007480000B583B00B4B1A6E42F001021A661A6E9E
:1007580002F001020092009A9A6D42F080529A6566
:100768009B6D03F080530193019B00F0DBFE03B007
:100778005DF804FB0010024030B589B01B4BDA6C01
:1007880042F00102DA64DA6C02F001020092009A87
:10079800DA6C42F00102DA64DA6C02F001020192CA
:1007A800019ADA6D42F00102DA65DB6D03F00103AC
:1007B8000293029B042303930224049406940123C6
:1007C80005930C2507950DEB05014FF0904000F0BF
:1007D8000BFD08230393049407950DEB05014FF0D7
:1007E800904000F001FD09B030BD00BF001002408C
:1007F80030B587B00F4BDA6C42F00102DA64DB6C7B
:1008080003F001030093009B202501950123029327
:10081800002403940323049301A94FF0904000F0AF
:10082800E3FC224629464FF0904000F0CEFD2046DA
:1008380007B030BD0010024010B586B01B4BDA6C13
:1008480042F00402DA64DB6C03F004030093009BBB
:100858004FF40053019302230393049341B90023F7
:10086800029301A9124800F0BFFC002006B010BD99
:1008780004464FF48813029301A90D4800F0B4FC14
:100888000C4B03EBC4040C49204600F0ABFD0B4AAB
:100898000021204600F09EFD00220F21282000F0B4
:1008A8009DFE282000F0AAFEDFE700BF00100240EE
:1008B80000080048EC0000200D000006DF080008D2
:1008C80008B5034B03EBC00000F092FD08BD00BF64
:1008D800EC000020704708B50020FFF7FBFF08BDBB
:1008E80008B50A4A02600A6842600C2242614A89D5
:1008F80002614A6882600A89C2608A8982614FF40B
:100908000042C26101F09BF908BD00BF00800040B1
:1009180001280ED838B50D469423094C03FB004432
:100928002046FFF729FF29462046FFF7D9FF18B9C7
:1009380038BD6FF0010070476FF00300F8E700BFA3
:1009480058000020104B1B680BB90120704710B5E8
:1009580004464FF47A70B0FBF3F30C4A1068B0FB0E
:10096800F3F000F04FFE68B90F2C01D901200AE01E
:10097800002221464FF0FF3000F030FE044B1C608F
:10098800002000E0012010BD000000200800002029
:100998000400002010B5032000F00EFE0020FFF731
:1009A800D1FF10B10124204610BD0446FFF7C8FE50
:1009B800F9E70000034A1368034909680B44136008
:1009C800704700BFF400002000000020014B1868A9
:1009D800704700BFF4000020124BDA6802F00302EF
:1009E800DB68C3F303130133032A11D00E48B0FBAD
:1009F800F3F00C4BDB68C3F3062303FB00F0094B51
:100A0800DB68C3F3416301335B00B0FBF3F070476D
:100A18000648B0FBF3F0034BDB68C3F3062303FB84
:100A280000F0ECE7001002400024F40000366E01EC
:100A3800002800F04F8270B582B00446036813F0B6
:100A4800010F37D0A44A936803F00C03D26802F070
:100A580003020C2B23D0082B23D06368B3F5803F07
:100A68004ED0B3F5A02F51D09B4B1A6822F4803298
:100A78001A601A6822F480221A606368002B52D028
:100A8800FFF7A4FF0546944B1B6813F4003F11D1F0
:100A9800FFF79CFF401B6428F5D9032023E2032AB3
:100AA800D9D18D4B1B6813F4003F03D06368002B2A
:100AB80000F01282236813F0020F5DD0864A936813
:100AC80003F00C03D26802F003020C2B3AD0042B7B
:100AD8003AD0E368002B75D07F4A136843F48073DB
:100AE8001360FFF773FF05467B4B1B6813F4806F99
:100AF8005FD1FFF76BFF401B0228F5D90320F2E115
:100B0800754A136843F480331360B6E703F18043F2
:100B1800A3F53C331A6842F480221A601A6842F43A
:100B280080321A60A9E7FFF751FF05466A4B1B6838
:100B380013F4003FBED0FFF749FF401B6428F5D9E6
:100B48000320D0E1022AC2D1634B1B6813F4806FE3
:100B580003D0E368002B00F0C1815F4A536823F09B
:100B6800FE43216943EA016353605C4B1868FFF751
:100B7800E9FE002840F0B481236813F0080F4CD038
:100B880063699BB3544AD2F8943043F00103C2F826
:100B98009430FFF71BFF05464F4BD3F8943013F002
:100BA800020F3AD1FFF712FF401B0228F4D90320A5
:100BB80099E1494A536823F0FE43216943EA0163F6
:100BC8005360D9E7444A136823F480731360FFF72E
:100BD800FDFE0546404B1B6813F4806FCCD0FFF731
:100BE800F5FE401B0228F5D903207CE13A4AD2F8E9
:100BF800943023F00103C2F89430FFF7E7FE05466E
:100C0800354BD3F8943013F0020F06D0FFF7DEFE11
:100C1800401B0228F4D9032065E1236813F0040F70
:100C280000F081802C4B9B6D13F0805F36D12A4BEE
:100C38009A6D42F080529A659B6D03F08053019340
:100C4800019B0125264B1B6813F4807F28D0A368DD
:100C5800012B39D0052B45D01F4BD3F8902022F01B
:100C68000102C3F89020D3F8902022F00402C3F8C0
:100C78009020A368002B43D0FFF7A8FE0646164B2A
:100C8800D3F8903013F0020F4CD1FFF79FFE801B72
:100C980041F288339842F2D9032024E10025D1E7B4
:100CA8000F4A136843F480731360FFF78FFE0646FC
:100CB8000B4B1B6813F4807FC9D1FFF787FE801B9D
:100CC8000228F5D903200EE1034AD2F8903043F008
:100CD8000103C2F89030CCE7001002400400002065
:100CE80000700040884BD3F8902042F00402C3F80B
:100CF8009020D3F8902042F00102C3F89020B8E782
:100D0800FFF764FE0646804BD3F8903013F0020FCD
:100D180008D0FFF75BFE801B41F288339842F2D976
:100D28000320E0E0E5B9236813F0200F35D0A3696C
:100D3800E3B1754AD2F8983043F00103C2F898300D
:100D4800FFF744FE0546704BD3F8983013F0020FB6
:100D580023D1FFF73BFE401B0228F4D90320C2E051
:100D6800694A936D23F080539365DCE7664AD2F8AD
:100D7800983023F00103C2F89830FFF727FE0546A4
:100D8800614BD3F8983013F0020F06D0FFF71EFE20
:100D9800401B0228F4D90320A5E0E369002B00F0EA
:100DA800A180594A926802F00C020C2A64D0022BE6
:100DB80013D0554A136823F080731360FFF706FEBB
:100DC8000446514B1B6813F0007F4ED0FFF7FEFD21
:100DD800001B0228F5D9032085E04B4A136823F04D
:100DE80080731360FFF7F2FD0546474B1B6813F04D
:100DF800007F06D0FFF7EAFD401B0228F5D9032043
:100E080071E0414AD36841491940236A606A013850
:100E180043EA0013A06A43EA0023206B4008013824
:100E280043EA4053606B4008013843EA4063E06A94
:100E380043EAC0631943D160136843F080731360B9
:100E4800D36843F08073D360FFF7C0FD04462E4B90
:100E58001B6813F0007F06D1FFF7B8FD001B0228BE
:100E6800F5D903203FE000203DE0274AD168284B10
:100E78000B40D360002036E0012B36D0224BDB68D4
:100E880003F00301226A914231D103F0F002616A52
:100E98000139B2EB011F2CD103F4FE42A16AB2EB77
:100EA800012F28D103F07842E16AB2EBC16F24D157
:100EB80003F4C001226B5208013AB1EB425F1ED124
:100EC80003F0C063626B5208013AB3EB426F18D16A
:100ED800002008E001207047012004E0012002E022
:100EE800012000E0002002B070BD0120FBE70120D6
:100EF800F9E70120F7E70120F5E70120F3E70120F2
:100F0800F1E70120EFE700BF001002400C809F01CD
:100F1800FCFFEEFE1E4B9B6803F00C03042B33D042
:100F28001B4B9B6803F00C03082B2FD0184B9B68B6
:100F380003F00C030C2B01D000207047144BDA6827
:100F480002F00302DB68C3F303130133032A11D051
:100F58001048B0FBF3F00E4BDB68C3F3062303FB2A
:100F680000F00B4BDB68C3F3416301335B00B0FB5C
:100F7800F3F070470848B0FBF3F0054BDB68C3F3A8
:100F8800062303FB00F0ECE702487047024870476D
:100F9800001002400024F40000366E01002800F022
:100FA800E680F8B50C460546744B1B6803F00F0342
:100FB8008B420BD2714A136823F00F030B43136063
:100FC800136803F00F038B4240F0D3802E6816F0AD
:100FD80001065FD06B68032B2FD0022B4DD0684BD6
:100FE8001B6813F4806F00F0C680FFF793FF654B12
:100FF80098424DD9624A936823F0F00343F0800386
:10100800936080265E4A936823F0030369680B4364
:101018009360FFF7DBFC0746594B9B6803F00C0312
:101028006A68B3EB820F35D0FFF7D0FCC01B41F2E2
:1010380088339842F0D9032078E0514B1B6813F0AD
:10104800007F01D1012071E0FFF7C6FC4D4B9842AB
:101058001AD94B4B9B6813F0F00F05D02E6816F089
:101068000206CFD0AB688BB9454A936823F0F003EA
:1010780043F0800393608026C4E7414B1B6813F458
:10108800003FB2D1012051E00026BBE70026B9E7B6
:101098000026B7E72B6813F0020F48D013F0040FAF
:1010A80004D0374A936843F4E06393602B6813F0E5
:1010B800080F06D0324A936823F47C5343F4E06364
:1010C80093602F4A936823F0F003A9680B43936059
:1010D8002A4B1B6803F00F03A34230D82B6813F088
:1010E800040F06D0264A936823F4E063E9680B43AB
:1010F80093602B6813F0080F07D0214A936823F4F4
:101108006053296943EAC1039360FFF703FF1C4B4F
:101118009B68C3F303131C4AD35C03F01F03D84036
:101128001A4B18601A4B1868FFF70CFCF8BD802E94
:10113800CED1134A936823F0F0039360C8E70F4AAF
:10114800136823F00F0323431360FFF73FFC0646A1
:101158000A4B1B6803F00F03A342BFD0FFF736FC0E
:10116800801B41F288339842F2D90320DEE7012040
:1011780070470120DAE70120D8E700BF00200240CD
:101188000010024000B4C404083F00080800002012
:1011980004000020014B1868704700BF08000020B9
:1011A80008B5FFF7F7FF054B9B68C3F30223044A12
:1011B800D35C03F01F03D84008BD00BF00100240F5
:1011C800003F000808B5FFF7E5FF054B9B68C3F330
:1011D800C223044AD35C03F01F03D84008BD00BFF4
:1011E80000100240003F0008F0B583B0002362E021
:1011F80085685E000324B44025EA0405CC68B44041
:101208002C438460456825EA0C054C68C4F3001437
:101218009C402C4344605FE0DD08083550F82540C9
:1012280003F0070C4FEA8C0C4FF00F0E0EFA0CFE71
:1012380024EA0E0E0C6904FA0CF444EA0E0440F891
:10124800254060E0052400E0002404FA0EF42C4355
:101258000CF1020C554D45F82C40554CA568D4436B
:1012680025EA02064F6817F4801F01D042EA0506F6
:101278004F4DAE60ED6804EA05064F6817F4001F8D
:1012880001D042EA05064A4DEE606D6804EA05069B
:101298004F6817F4003F01D042EA0506444D6E60DE
:1012A8002D682C404E6816F4803F01D042EA0504B0
:1012B8003F4A146001330A6832FA03F474D04FF0DD
:1012C800010C0CFA03FC1CEA0202F3D04C6804F08F
:1012D8000304013C012C8BD94C6804F00304032C53
:1012E8000CD0C4685D004FF0030C0CFA05FC24EA2E
:1012F8000C0C8C68AC4044EA0C04C4604C6804F0E4
:101308000304022C88D004684FEA430E4FF0030C04
:101318000CFA0EFC24EA0C0C4C6804F0030404FAE2
:101328000EF444EA0C0404604C6814F4403FC1D045
:10133800204C256E45F001052566246E04F0010455
:101348000194019C4FEA930C0CF10205174C54F8D8
:10135800255003F0030E4FEA8E0E0F2404FA0EF404
:1013680025EA0405B0F1904F3FF46EAF124CA0424D
:1013780012D004F58064A04210D004F58064A04225
:101388000ED004F58064A0420CD004F58064A0421D
:101398003FF458AF062458E7012456E7022454E7DF
:1013A800032452E7042450E703B0F0BD00000140D5
:1013B800000401400010024000040048036919427B
:1013C80001D001207047002070470AB18161704741
:1013D8008162704711B94260084670470023436034
:1013E8000120704710B1016000207047012070474C
:1013F80010B50368C3F3004203F01F0301219940AD
:101408005301044A9C580C4203D09950436803B1D5
:10141800984710BD14040140002836D13E4B1B6884
:1014280003F4C063B3F5806F08D03B4AD2F880302C
:1014380023F48073C2F8803000207047364AD2F80F
:10144800803023F48073C2F88030136823F4C063BB
:1014580043F400731360314B1B68322202FB03F321
:101468002F4AA2FB03239B0C013300E0013B2A4ACD
:10147800526912F4806F01D0002BF7D1264B5B69BB
:1014880013F4806F44D100207047B0F5007F08D076
:10149800214A136823F4C06343F480631360002077
:1014A80070471D4B1B6803F4C063B3F5806F08D009
:1014B800194AD2F8803043F48073C2F88030002093
:1014C8007047154AD2F8803043F48073C2F88030F0
:1014D800136823F4C06343F4007313600F4B1B6855
:1014E800322202FB03F30E4AA2FB03239B0C0133B7
:1014F80000E0013B084A526912F4806F01D0002BCA
:10150800F7D1054B5B6913F4806F03D10020704756
:101518000320704703207047007000400800002037
:1015280083DE1B43024A936843F480439360704709
:1015380000700040002807DB00F01F02400901236B
:101548009340024A42F82030704700BF00E100E0B3
:10155800002808DB0901C9B200F1604000F56140CC
:1015680080F80013704700F00F000901C9B2014B61
:101578001954704714ED00E000B500F00700C0F101
:10158800070CBCF1040F28BF4FF0040C031D062BF9
:101598000FD9C31E4FF0FF3E0EFA0CF021EA0001EE
:1015A80099400EFA03FE22EA0E0241EA02005DF8B3
:1015B80004FB0023EEE70000074AD36823F4E06346
:1015C8001B041B0C000200F4E060034343F0BF63FC
:1015D80043F40033D360704700ED00E010B50446D3
:1015E800054BD868C0F30220FFF7C6FF0146204626
:1015F800FFF7AEFF10BD00BF00ED00E008B5FFF734
:1016080099FF08BD0138B0F1807F0BD24FF0E0237D
:101618005861054AF02182F82310002098610722BA
:101628001A6170470120704700ED00E0026852E837
:10163800003F23F4907342E800310029F6D1026894
:1016480002F1080353E8003F23F0805323F001031D
:10165800083242E800310029F1D1C36E012B06D0CF
:101668002023C0F88C300023C366436770470268A4
:1016780052E8003F23F0100342E800310029F6D178
:10168800EEE7704770B50446016883680269134342
:1016980042691343C26913430868964A02401A43D1
:1016A8000A602268536823F44053E1680B4353608F
:1016B800A1692268904B9A4201D0236A1943936822
:1016C80023F06E4323F430630B4393602268D36A9C
:1016D80023F00F03616A0B43D3622368874A93425E
:1016E80010D0874A934221D0864A934237D0864AFF
:1016F80093425CD0854A93426BD07F4A93427DD017
:1017080010223AE002F55842D2F8882002F003028B
:10171800032A09D8DFE802F00204870601222CE038
:1017280004222AE0082228E0102226E002F5E63208
:10173800D2F8882002F00C020C2A0ED8DFE802F05A
:10174800070D0D0D090D0D0D750D0D0D0B0000226A
:1017580013E0042211E008220FE010220DE002F548
:10176800E432D2F8882002F03002202A5FD01AD85A
:10177800002A5ED0102A5ED104225F498B4276D0BF
:10178800E069B0F5004F00F0C980082A00F2348102
:10179800DFE812F0F7001901F50032011C013201EF
:1017A800320132011F01302A47D10822E5E702F54C
:1017B800E232D2F8882002F0C002802A3FD004D852
:1017C800FAB3402A3FD10422D7E7C02A3DD10822E4
:1017D800D3E702F5E032D2F8882002F44072B2F57D
:1017E800007F34D005D8A2B3B2F5807F33D104226C
:1017F800C3E7B2F5407F30D10822BEE702F5C83210
:10180800D2F8882002F44062B2F5006F27D005D8DC
:101818003AB3B2F5806F26D10422AEE7B2F5406F35
:1018280023D10822A9E70222A7E70222A5E702227C
:10183800A3E70022A1E710229FE710229DE70222DA
:101848009BE7002299E7102297E7102295E70222EA
:1018580093E7002291E710228FE710228DE70222FA
:101868008BE7002289E7102287E7102285E7082AFC
:1018780000F2B280DFE802F008B03BB038B0B0B098
:1018880005004FF4004004E0FFF78AFC002800F050
:10189800A580626A1E4B33F81220B0FBF2F365682C
:1018A80005EB4501994200F29B80B3EB053F00F23E
:1018B8009980002633463146FEF7FAFC090241EAD0
:1018C800106100026B08C0182A46334641F1000136
:1018D800FEF7EEFCA0F540720E4B9A4200F28480AF
:1018E8002368D860304665E0FFF714FBCEE70A4866
:1018F800CFE700BFF369FFCF008000400038014008
:101908000044004000480040004C004000500040A7
:10191800E83E0008FFFC0F000024F400082A65D800
:10192800DFE802F0072705642A6464640B00354881
:1019380003E0FFF735FC00285AD0626A324B33F8CF
:101948001230B0FBF3F06268530803EB4003B3FBBB
:10195800F2F3A3F110014FF6EF7291424AD89AB20E
:1019680022F00F02C3F3420313432268D36000201E
:1019780020E0FFF727FCDEE7FFF7CCFADBE721489A
:1019880003E0FFF70DFC002838D0626A1E4B33F8DD
:101998001230B0FBF3F0636800EB5300B0FBF3F0D8
:1019A800A0F110024FF6EF739A4229D8236880B24B
:1019B800D86000200123A4F86A30A4F86830002316
:1019C8006367A36770BDFFF7FDFBDCE7FFF7A2FACB
:1019D800D9E74FF40040D8E70120EBE70020E9E71A
:1019E8000120E7E70120E5E70120E3E70120E1E73F
:1019F8000020DFE70120DDE70120DBE70020D9E751
:101A08000120D7E70024F400E83E0008836A13F0B9
:101A1800080F06D00268536823F40043816B0B4318
:101A28005360836A13F0010F06D00268536823F4E9
:101A38000033C16A0B435360836A13F0020F06D068
:101A48000268536823F48033016B0B435360836A45
:101A580013F0040F06D00268536823F48023416B07
:101A68000B435360836A13F0100F06D00268936823
:101A780023F48053C16B0B439360836A13F0200FE8
:101A880006D00268936823F40053016C0B439360FB
:101A9800836A13F0400F0AD00268536823F4801356
:101AA800416C0B435360436CB3F5801F0BD0836AC2
:101AB80013F0800F06D00268536823F40023C16C2A
:101AC8000B43536070470268536823F4C003816C6A
:101AD8000B435360EBE72DE9F84305460E461746DE
:101AE8009946DDF820802B68DC6936EA04040CBFCF
:101AF80001240024BC4236D1B8F1FF3FF3D0FEF7F1
:101B080065FFA0EB0900404530D8B8F1000F2FD091
:101B18002B681A6812F0040FE5D0802EE3D0402E0F
:101B2800E1D0DA6912F0080F11D1DA6912F4006F06
:101B3800D9D04FF400621A622846FFF777FD2023B8
:101B4800C5F89030002385F8843003200CE0082481
:101B58001C622846FFF76AFDC5F89040002385F807
:101B68008430012000E00020BDE8F8830320FBE773
:101B78000320F9E730B583B004460023C0F890305D
:101B8800FEF724FF05462268126812F0080F10D1EC
:101B980023681B6813F0040F28D12023C4F8883069
:101BA800C4F88C300020E066206784F8840003B015
:101BB80030BD6FF07E430093034600224FF40011BE
:101BC8002046FFF788FF0028E2D0226852E8003F4D
:101BD80023F0800342E800310029F6D12023C4F81D
:101BE8008830002384F884300320E0E76FF07E43D8
:101BF80000932B4600224FF480012046FFF76BFF2D
:101C08000028CAD0226852E8003F23F4907342E8C3
:101C180000310029F6D1226802F1080353E8003F99
:101C280023F00103083242E800310029F3D12023D0
:101C3800C4F88C30002384F884300320B7E778B3E5
:101C480010B50446D0F888300BB32423C4F8883084
:101C58002268136823F001031360A36AE3B92046DE
:101C6800FFF710FD012811D02268536823F4904330
:101C780053602268936823F02A03936022681368EC
:101C880043F0010313602046FFF774FF10BD80F88E
:101C98008430FFF7F6FCD8E72046FFF7B7FEDEE70B
:101CA80001207047034AD2F8883043F47003C2F821
:101CB8008830704700ED00E000B58DB02422002187
:101CC80003A802F0D4F8002300930193029311486B
:101CD800114A0260436083604FF0FF32C2600361C3
:101CE8008361012303930593099303A900F0AAFDD7
:101CF80050B90023009302936946064801F002FB9D
:101D080028B90DB05DF804FBFEF74AFCF1E7FEF7D1
:101D180047FCF6E7DC010020000C004000B585B068
:101D280000230193029303930E480F4A02606B222B
:101D3800426083604FF6FF72C260836100F022FD4B
:101D480050B900230193039301A9064801F0DAFA78
:101D580028B905B05DF804FBFEF722FCF1E7FEF7B1
:101D68001FFCF6E7900100200010004000B589B084
:101D78000023049305930693079301930293039317
:101D88001048114A0260436083604FF6FF72C260D8
:101D980003614361836104A901F05DF960B95023CF
:101DA800019300230293039301A9064801F0AAFABC
:101DB80028B909B05DF804FBFEF7F2FBEFE7FEF780
:101DC800EFFBF6E7440100200034014000B589B07C
:101DD80000230493059306930793019302930393B7
:101DE8001448154A0260436083604FF6FF72C26070
:101DF80003614361836100F0C5FC90B94FF48053DF
:101E0800049304A90B4800F0ADFE68B900230193C0
:101E1800039301A9074801F075FA40B909B05DF8C4
:101E280004FBFEF7BDFBE9E7FEF7BAFBEEE7FEF7BA
:101E3800B7FBF3E7F80000200040014000B585B08B
:101E48000368224A934208D0214A934220D0214A6B
:101E5800934228D005B05DF804FB1F4B1A6E42F47C
:101E680000621A661B6E03F400630193019B002253
:101E780011461820FFF7B2FB1820FFF7BFFB00221E
:101E880011461920FFF7AAFB1920FFF7B7FBE1E776
:101E9800114B9A6D42F010029A659B6D03F0100386
:101EA8000293029BD6E70C4B1A6E42F480321A66F4
:101EB8001B6E03F480330393039B00221146182002
:101EC800FFF78CFB1820FFF799FBC3E7002C0140B4
:101ED80000100040004001400010024000B589B0E9
:101EE8000023039304930593069307930268124B08
:101EF8009A4202D009B05DF804FB03F501339A6DEC
:101F080042F008029A659A6D02F008020192019A5D
:101F1800DA6C42F00102DA64DB6C03F0010302932D
:101F2800029B0323039302230493079303A94FF00F
:101F38009040FFF759F9DDE7000C004000B589B083
:101F48000023039304930593069307930268134BA6
:101F58009A4202D009B05DF804FB03F55C431A6E9F
:101F680042F400521A661A6E02F400520192019A63
:101F7800DA6C42F00402DA64DB6C03F004030293C7
:101F8800029B4FF4E0730393022304930423079303
:101F980003A90348FFF728F9DCE700BF0034014034
:101FA80000080048F0B589B0002303930493059313
:101FB8000693079302681F4B9A4201D009B0F0BDFF
:101FC80003F56443DA6C42F00202DA64DA6C02F078
:101FD80002020192019ADA6C42F00102DA64DB6CC7
:101FE80003F001030293029B4FF4C04303930225BD
:101FF800049506260796104F03A93846FFF7F4F80C
:102008004FF4004303930495002405940694042395
:10201800079303A93846FFF7E7F84FF4E063039303
:10202800049505940694079603A94FF09040FFF78E
:10203800DBF8C3E7002C01400004004810B59CB051
:102048000024189419941A941B94159416941794B0
:102058000E940F941094119412941394149434229F
:10206800214601A801F003FF4048414B036044604A
:10207800202383604FF6FF73C36004610623436126
:10208800846100F07FFB002857D14FF480531893E8
:1020980018A9364800F066FD002851D1334800F0F1
:1020A800A1FB00284FD1002315934FF4001316937A
:1020B8008023179315A92D4801F024F9002845D14C
:1020C80060230E934FF400430F9300221092119255
:1020D8001292139214920EA9244800F059FC002879
:1020E80037D104220EA9214800F052FC002833D130
:1020F80008220EA91D4800F04BFC00282FD1002310
:1021080001930293039304934FF4805205924FF482
:10211800005206920793089309934FF000720A92AF
:102128000B930C930D9301A9104801F041F9C8B91C
:102138000E48FFF737FF1CB010BDFEF731FAA4E7D1
:10214800FEF72EFAAAE7FEF72BFAACE7FEF728FA15
:10215800B6E7FEF725FAC4E7FEF722FAC8E7FEF766
:102168001FFACCE7FEF71CFAE2E700BF28020020BE
:10217800002C014030B4026A036A23F001030362B1
:102188004468836923F4803323F073030D681D4387
:1021980022F002028B681343204A904213D002F5C2
:1021A800006290420FD002F5406290420BD002F5D7
:1021B8008062904207D002F58062904203D002F517
:1021C8000062904205D123F00803CA681A4322F03E
:1021D8000403124A904213D002F5006290420FD0D5
:1021E80002F5406290420BD002F58062904207D01F
:1021F80002F58062904203D002F50062904205D158
:1022080024F440744A6922438C691443446085610C
:102218004A684263036230BC704700BF002C01402B
:1022280030B4036A026A22F4807202624468C269A6
:1022380022F4803222F073020D68154323F40073F0
:102248008A6843EA02231C4A904207D002F50062DA
:10225800904203D002F5E052904206D123F4006385
:10226800CA6843EA022323F48063134A904213D0D6
:1022780002F5006290420FD002F5406290420BD006
:1022880002F58062904207D002F58062904203D046
:1022980002F50062904207D124F440524C6942EAA8
:1022A80004128C6942EA04144460C5614A68C26336
:1022B800036230BC704700BF002C014030B4036A91
:1022C800026A22F4805202624468C26922F0807273
:1022D80022F4E6420D6842EA052223F400538D6891
:1022E80043EA05331B4DA84207D005F50065A8420F
:1022F80003D005F5E055A84206D123F40043CD6884
:1023080043EA053323F48043124DA84213D005F560
:102318000065A8420FD005F54065A8420BD005F529
:102328008065A84207D005F58065A84203D005F569
:102338000065A84207D124F4404C4C694CEA841C3F
:102348008C694CEA84144460C2614A68026403627E
:1023580030BC7047002C014030B4036A026A22F492
:10236800803202624468026D22F4803222F07002E8
:102378000D68154323F400338A6843EA0243114A7F
:10238800904213D002F5006290420FD002F54062ED
:1023980090420BD002F58062904207D002F580622D
:1023A800904203D002F50062904204D124F48034B4
:1023B8004A6944EA0224446005654A688264036203
:1023C80030BC7047002C014030B4036A026A22F422
:1023D800801202624468026D22F0807222F4E042A8
:1023E8000D6842EA052223F400138D6843EA055379
:1023F800114DA84213D005F50065A8420FD005F588
:102408004065A8420BD005F58065A84207D005F5C0
:102418008065A84203D005F50065A84204D124F4DC
:1024280080244D6944EA8524446002654A68C26490
:10243800036230BC704700BF002C014010B4036A2F
:10244800046A24F001040462846924F0F00C4CEA64
:10245800021223F00A030B43826103625DF8044B06
:10246800704710B4036A046A24F010040462846993
:1024780024F4704C4CEA023223F0A00343EA01131F
:10248800826103625DF8044B7047836823F440134C
:1024980023F070030B4343F00703836070477047D2
:1024A800704770477047704770B505460368DE6827
:1024B8001C6914F0020F10D016F0020F0DD06FF047
:1024C80002021A610123037703689B6913F0030F63
:1024D8007CD0FFF7E6FF00232B7714F0040F12D00F
:1024E80016F0040F0FD02B686FF004021A61022354
:1024F8002B772B689B6913F4407F6DD02846FFF734
:10250800D0FF00232B7714F0080F12D016F0080F15
:102518000FD02B686FF008021A6104232B772B6801
:10252800DB6913F0030F5ED02846FFF7BAFF0023DC
:102538002B7714F0100F12D016F0100F0FD02B6855
:102548006FF010021A6108232B772B68DB6913F4EC
:10255800407F4FD02846FFF7A4FF00232B7714F0C5
:10256800010F02D016F0010F4BD114F4025F02D014
:1025780016F0800F4DD114F4807F02D016F0800F32
:102588004FD114F0400F02D016F0400F51D114F083
:10259800200F02D016F0200F53D114F4801F02D060
:1025A80016F4801F55D114F4001F02D016F4001F32
:1025B80057D114F4800F02D016F4800F59D114F4B7
:1025C800000F02D016F4000F5BD170BDFFF768FF53
:1025D8002846FFF767FF7EE72846FFF761FF284692
:1025E800FFF760FF8DE72846FFF75AFF2846FFF7F9
:1025F80059FF9CE72846FFF753FF2846FFF752FF8D
:10260800ABE72B686FF001021A61284601F02AFB3C
:10261800ABE72B686FF402521A61284600F01DFFE1
:10262800A9E72B686FF480721A61284600F016FF3C
:10263800A7E72B686FF040021A612846FFF733FFBF
:10264800A5E72B686FF020021A61284600F004FF06
:10265800A3E72B686FF480121A61284600F0FFFE8A
:10266800A1E72B686FF400121A61284600F0F8FE03
:102678009FE72B686FF480021A61284600F0F1FE8C
:102688009DE72B686FF400021A61284600F0EAFE05
:102698009BE7000003683A4A904216D0B0F1804F99
:1026A80013D0A2F5943290420FD002F58062904286
:1026B8000BD002F58062904207D002F59432904226
:1026C80003D002F5E052904203D123F070034A6828
:1026D80013432B4A904222D0B0F1804F1FD0A2F56D
:1026E800943290421BD002F58062904217D002F5D6
:1026F8008062904213D002F5943290420FD002F5D6
:10270800406290420BD002F58062904207D002F5F9
:102718008062904203D002F50062904203D123F414
:102728004073CA68134323F080034A691343036064
:102738008B68C3620B688362114B984213D003F510
:10274800006398420FD003F5406398420BD003F51D
:102758008063984207D003F58063984203D003F55D
:102768000063984201D10B69036301234361036944
:1027780013F0010F03D0036923F0010303617047CD
:10278800002C014060B310B5044690F83D3013B3F7
:10279800022384F83D30214651F8040BFFF77AFFF5
:1027A800012384F8483084F83E3084F83F3084F8B8
:1027B800403084F8413084F8423084F8433084F85B
:1027C800443084F8453084F8463084F8473084F83B
:1027D8003D30002010BD80F83C30FFF72FFBD7E7D5
:1027E8000120704760B310B5044690F83D3013B32C
:1027F800022384F83D30214651F8040BFFF74AFFC5
:10280800012384F8483084F83E3084F83F3084F857
:10281800403084F8413084F8423084F8433084F8FA
:10282800443084F8453084F8463084F8473084F8DA
:102838003D30002010BD80F83C30FFF730FED7E770
:1028480001207047002853D0F8B50D46044690F88B
:102858003D30002B47D0022384F83D30226893682E
:1028680023F4A03323F007039360214651F8040BA7
:10287800FFF710FF21688B688A690E6A2868184379
:1028880022F4407222F00302AB68AF6943EA0723DF
:10289800134323F47C4323F0FC03EA68EF6942EA1C
:1028A80007221A432B6A1B032F6943EA07131343B2
:1028B80026F0AA066A686D6942EA05123243886002
:1028C80021688B6123681A62012384F8483084F8F0
:1028D8003E3084F83F3084F8443084F8453084F83A
:1028E8003D300020F8BD80F83C30FFF7F7FAB2E73A
:1028F8000120704730B4036A026A22F010020262B3
:102908004468826922F0807222F4E6420D6842EA45
:10291800052223F020038D6843EA05131B4DA842C6
:1029280007D005F50065A84203D005F5E055A84293
:1029380006D123F08003CD6843EA051323F0400352
:10294800124DA84213D005F50065A8420FD005F531
:102958004065A8420BD005F58065A84207D005F56B
:102968008065A84203D005F50065A84207D124F484
:10297800406C4C694CEA840C8C694CEA84044460D1
:1029880082614A688263036230BC7047002C014050
:1029980038B590F83C30012B00F0958004460D4680
:1029A800012380F83C30142A00F28880DFE802F026
:1029B8000B8686861F868686348686864886868621
:1029C8005D86868671000068FFF7D4FB22689369EC
:1029D80043F0080393612268936923F00403936129
:1029E8002268936929690B439361002067E00068B6
:1029F800FFF780FF2268936943F4006393612268BC
:102A0800936923F48063936122689369296943EA8F
:102A180001239361002052E00068FFF701FC22685F
:102A2800D36943F00803D3612268D36923F0040310
:102A3800D3612268D36929690B43D36100203EE042
:102A48000068FFF73BFC2268D36943F40063D36155
:102A58002268D36923F48063D3612268D369296922
:102A680043EA0123D361002029E00068FFF774FCE2
:102A78002268136D43F0080313652268136D23F071
:102A8800040313652268136D29690B43136500203D
:102A980015E00068FFF798FC2268136D43F40063A3
:102AA80013652268136D23F4806313652268136D20
:102AB800296943EA01231365002000E0012000236F
:102AC80084F83C3038BD0220FCE7000070B494461E
:102AD800066A046A24F0010404628469184DA84255
:102AE8001CD0B0F1804F19D0164A904216D002F58A
:102AF8008062904212D002F5806290420ED002F5B8
:102B0800943290420AD002F54062904206D002F513
:102B18008052904202D044F0010203E024F0030204
:102B280042EA0C0222F0F0021B01DBB2134326F04A
:102B38000A0201F00A0111438361016270BC704707
:102B4800002C01400004004010B4846824F47F4C39
:102B580042EA03220A4342EA0C0282605DF8044B0F
:102B68007047000090F83C30012B00F09B8010B5B6
:102B78000446012380F83C30022380F83D30026887
:102B88009068494B034093600B68702B61D031D833
:102B9800502B78D00CD9602B2AD1CA684968206894
:102BA800FFF75FFC60212068FFF76FFC002038E02A
:102BB800402B0AD1CA6849682068FFF73FFC4021CA
:102BC8002068FFF762FC00202BE067D8202B07D095
:102BD80003D9302B04D0012023E00BB1102B05D1F1
:102BE80019462068FFF751FC00201AE0012018E080
:102BF800012016E0B3F5005F38D00ED92B4A934276
:102C0800EED015D92A4A9342EAD010329342E7D03F
:102C1800203A9342E4D0012003E0B3F5805F3FD12E
:102C28000020012384F83D30002384F83C3010BD97
:102C3800203A9342D4D004D91E4A9342D0D00120DE
:102C4800EFE7B3F5801FCBD0B3F1101FC8D0012038
:102C5800E7E7CB684A6889682068FFF775FF22684C
:102C6800936843F0770393600020DAE7CB684A68FB
:102C780089682068FFF768FF2268936843F48043F7
:102C880093600020CDE7CA6849682068FFF7D6FB43
:102C980050212068FFF7F9FB0020C2E70120C0E7B8
:102CA8000120BEE7022070478800CEFF40001000D8
:102CB800600010003000100001F01F014FF0010CFF
:102CC8000CFA01FC036A23EA0C030362036A8A40D4
:102CD800134303627047000010B5044610293DD81D
:102CE800DFE801F0093C3C3C203C3C3C273C3C3CB8
:102CF8002E3C3C3C350090F83E30DBB2013B18BF1F
:102D08000123002B40F09B80102900F28680DFE829
:102D180001F02C84848474848484788484847C84FE
:102D28008484800090F83F30DBB2013B18BF012358
:102D3800E7E790F84030DBB2013B18BF0123E0E73A
:102D480090F84130DBB2013B18BF0123D9E790F876
:102D58004230DBB2013B18BF0123D2E790F8433081
:102D6800DBB2013B18BF0123CBE7022384F83E30D6
:102D780001222068FFF7A0FF2368344A934213D04A
:102D880002F5006293420FD002F5406293420BD0E5
:102D980002F58062934207D002F58062934203D025
:102DA80002F50062934203D15A6C42F400425A641D
:102DB8002368264A934234D0B3F1804F31D0A2F52C
:102DC800943293422DD002F58062934229D002F5C5
:102DD8008062934225D002F59432934221D002F5C5
:102DE800406293421DD002F58052934219D01A686E
:102DF80042F001021A60002022E0022384F83F30EA
:102E0800B6E7022384F84030B2E7022384F8413061
:102E1800AEE7022384F84230AAE7022384F843305D
:102E2800A6E799680A4A0A40062A0AD0B2F5803FFE
:102E380009D01A6842F001021A60002000E001205F
:102E480010BD0020FCE70020FAE700BF002C01407D
:102E58000700010010B5044610293DD8DFE801F04D
:102E6800093C3C3C203C3C3C273C3C3C2E3C3C3C0C
:102E7800350090F83E30DBB2013B18BF0123002B30
:102E880040F0CE80102900F29B80DFE801F02C99F9
:102E9800999979999999829999998B99999994007D
:102EA80090F83F30DBB2013B18BF0123E7E790F809
:102EB8004030DBB2013B18BF0123E0E790F8413016
:102EC800DBB2013B18BF0123D9E790F84230DBB2EF
:102ED800013B18BF0123D2E790F84330DBB2013B36
:102EE80018BF0123CBE7022384F83E302268D36859
:102EF80043F00203D36001222068FFF7DDFE236858
:102F08004B4A934213D002F5006293420FD002F568
:102F1800406293420BD002F58062934207D002F5DB
:102F28008062934203D002F50062934203D15A6C47
:102F380042F400425A6423683D4A934262D0B3F196
:102F4800804F5FD0A2F5943293425BD002F5806245
:102F5800934257D002F58062934253D002F59432DF
:102F680093424FD002F5406293424BD002F5805213
:102F7800934247D01A6842F001021A60002050E0DC
:102F8800022384F83F302268D36843F00403D360F7
:102F9800B1E7022384F840302268D36843F008037D
:102FA800D360A8E7022384F841302268D36843F04D
:102FB8001003D3609FE7022384F84230012030E0F9
:102FC800022384F843300C292CD801A353F821F0AC
:102FD800F52E00082D3000082D3000082D3000088F
:102FE8008F2F00082D3000082D3000082D300008E4
:102FF800A12F00082D3000082D3000082D300008C2
:10300800B32F000899680B4A0A40062A0CD0B2F57B
:10301800803F0BD01A6842F001021A60002000E0DD
:10302800012010BD0120FCE70020FAE70020F8E7A6
:10303800002C01400700010001F00F014FF0040CC3
:103048000CFA01FC036A23EA0C030362036A8A4050
:1030580013430362704700286BD070B588B00E46E2
:10306800044690F83D30002B5ED0022384F83D30B2
:10307800214651F8040BFFF70DFBB36803223168B2
:103088002068FFF723FD2268936923F00C039361FE
:103098002268936971680B4393612268536843F00F
:1030A800800353602268936823F4401323F070036D
:1030B80093602268936843F04003936022689368A2
:1030C80023F4803323F0070393602268936843F066
:1030D80004039360002505950695702301930795D1
:1030E80004950395F368029301A92068FFF702FC91
:1030F8002268536823F0007323F07003536022683A
:10310800536843F050035360012384F8483084F82F
:103118003E3084F83F3084F8443084F8453084F8F1
:103128003D30284608B070BD80F83C30FEF706FFF9
:103138009BE701207047000010B5044690F83E0058
:10314800C0B294F83F3094F8442094F84510012810
:103158004AD1DBB2D2B2C9B2012B46D1012A45D13C
:10316800012901D0104640E0022384F83E3084F85B
:103178003F3084F8443084F8453000212068FFF758
:103188009BFD23681C4A934220D0B3F1804F1DD089
:10319800A2F59432934219D002F58062934215D079
:1031A80002F58062934211D002F5943293420DD019
:1031B80002F54062934209D002F58052934205D04D
:1031C8001A6842F001021A6000200EE099680B4A62
:1031D8000A40062A0CD0B2F5803F0BD01A6842F09C
:1031E80001021A60002000E0012010BD1846FCE72B
:1031F8000020FAE70020F8E7002C01400700010052
:1032080010B50446084600293BD194F84430DBB297
:10321800013B18BF0123002B6AD100284AD10223A1
:1032280084F84430042201462068FFF705FF22682D
:10323800536C43F4004353642368304A934249D0A3
:10324800B3F1804F46D0A2F59432934242D002F5B2
:10325800806293423ED002F5806293423AD002F5F2
:103268009432934236D002F54062934232D002F54E
:10327800805293422ED01A6842F001021A60002050
:1032880037E0042908D008290DD094F84730DBB27C
:10329800013B18BF0123BEE794F84530DBB2013B80
:1032A80018BF0123B7E794F84630DBB2013B18BFDB
:1032B8000123B0E7042805D0082807D0022384F8A2
:1032C8004730AFE7022384F84530ABE7022384F8A0
:1032D8004630A7E799680A4A0A40062A0AD0B2F592
:1032E800803F09D01A6842F001021A60002000E00D
:1032F800012010BD0020FCE70020FAE7002C014067
:103308000700010090F83C20012A4CD030B4034655
:10331800012280F83C20022280F83D2000684268A3
:103328008468224DA84207D005F50065A84203D05D
:1033380005F5E055A84203D122F470024D682A43EE
:1033480022F0007222F070020D682A4342601A6867
:10335800164882421AD0B2F1804F17D0A0F59430A7
:10336800824213D000F5806082420FD000F5806061
:1033780082420BD000F59430824207D000F54060BD
:10338800824203D000F58050824204D124F08004A8
:10339800896821439160012283F83D20002083F849
:1033A8003C0030BC70470220704700BF002C014031
:1033B80090F83C30012B4AD010B40246012380F823
:1033C8003C30CB6823F440738868034323F480635C
:1033D8004868034323F400630868034323F48053D5
:1033E8000869034323F400534869034323F48043E3
:1033F800086B034323F47023886943EA004323F0EE
:103408008053C86903431068124CA04207D004F5E2
:103418000064A04203D004F5E054A04210D123F484
:1034280070038C6A43EA045323F080730C6A2343C5
:1034380023F000734C6A234323F00053C96A0B43FB
:103448004364002082F83C005DF8044B704702207A
:10345800704700BF002C01407047704770477047A5
:1034680070477047704740F38F20704700B587B0AA
:103478004CF2503000F0B4FB00F098F900230193AF
:103488000293039304930593032301930123039366
:1034980001A94FF09040FDF7A7FE07B05DF804FBC7
:1034A80010B582B000230193FF23009302234FF04D
:1034B80090420121104600F03DF880B2174B188069
:1034C800174B1B782BB900F095F9154B187002B003
:1034D80010BD144C204600F0BBF9A0684042FFF72D
:1034E800C2FF114B1A6810441860642801DD50228D
:1034F8001A600D4B1B684F2B02DC0B4B3C221A60E9
:10350800064B1A88084B1968064B188800F0E4FB2C
:10351800064B1B68DA6A064B1A80D8E70C000020B5
:10352800740200208C02002010000020900100206E
:10353800760200202DE9F04791469A46089F099E99
:103548003D4C25786D00FDF739FF28432070DFF8E2
:10355800208198F800506D0051464846FDF72EFF2F
:103568002843C0B288F800002378344A127802BB96
:10357800334B344A1A60344B344A1A60304B1B6858
:10358800334A93424ED0334A934250D0324B1B6851
:10359800BB4201DD304B1F602F4B1B68B34201DA81
:1035A8002D4B1E60254B01221A702B4B1868BDE865
:1035B800F08703F00F0300F00F00234A1268234935
:1035C8008A420BD08A4212D024498A4218D0244910
:1035D8008A421ED01A4B234A1A60CFE7032BF1D137
:1035E800174B214A1A60184B1C4A1A60C6E70E2866
:1035F800EAD1134B1D4A1A60134B194A1A60BDE7EA
:103608000328E4D10E4B124A1A600F4B0F4A1A6076
:10361800B4E70E2BDED10A4B0E4A1A600A4B0B4A4E
:103628001A60ABE70C490A6801320A60ABE70A4A3C
:103638001368013B1360A9E7890200207802002083
:1036480080020020183F00087C020020243F000868
:10365800783F0008843F0008840200203C3F0008AF
:10366800643F0008903F00082C3F0008503F0008C6
:1036780088020020B0F5B47F02D3A0F5B47080B200
:10368800592816D9A0F15A039BB2592B15D9A0F184
:10369800B4039BB2592B16D9A0F587739BB2592B4B
:1036A80018D8C0F5B4700C4B33F81000404200B283
:1036B8007047094B33F910007047C0F1B400064B4E
:1036C80033F910007047B438034B33F81000404208
:1036D80000B2704700207047983F000800F15A0375
:1036E8009BB2B3F5B47F02D3A0F5877083B2592B90
:1036F80016D9A3F15A0292B2592A15D9A3F1B402E4
:1037080092B2592A16D9A3F5877292B2592A18D8B3
:10371800C3F5B4730C4A32F81300404200B2704744
:10372800094A32F913007047C3F1B403064A32F963
:1037380013007047B43B044A32F81300404200B209
:1037480070470020704700BF983F000810B50C462E
:1037580003680B6041688368C91A40F2ED62002370
:1037680088028915FCF754FD606010BD2DE9F04111
:1037780007460D461FFA82F84046FFF7AFFF064698
:103788007C6800FB04F44046FFF774FF3B6803FBCA
:103798001044A4122C603B687A6802FB00F003FB1B
:1037A800060080126860BDE8F081000008B50F4B84
:1037B8001B68196A41F21112114208D1196A44F2C0
:1037C8004442114203D11A6822F001021A60074BE1
:1037D8001B684FF6FF72DA6206229A621A6842F094
:1037E80001021A600248FFF7A7FC08BD90010020FB
:1037F8004401002008B502460F4B1B7853B90F4B04
:103808001B684FF4B471D96244F6206199620A4B7F
:10381800012119700A4B596A0A4B1960074B1B683A
:10382800586A80B2084B1880084B1880002100F0B5
:1038380053FA002008BD00BFD802002090010020E4
:1038480000340140DC020020DA0200208C02002053
:103858002DE9F0470446AB4B1B78002B00F0C180E4
:10386800A94B1B685D6AA94F3E787600DFF8A4A2D1
:1038780040215046FDF7A2FD30433870A44E96F81B
:1038880000804FEA480880215046FDF797FD40EA3E
:1038980008003070DFF8B08298F800904FEA4909C4
:1038A8004FF480715046FDF789FD40EA0903DBB209
:1038B80088F80030397801F00F01032914BF00207F
:1038C80001200E2914BF00270127327802F00F02C9
:1038D800032A14BF002601260E2A14BF4FF0000C3D
:1038E8004FF0010C03F00F03032B14BF4FF0000E31
:1038F8004FF0010E0E2B14BF4FF000084FF00108D7
:103908000E2974D0032972D000210E2A00F09C8061
:10391800032A00F099800E2B00F0BE80032B00F0E4
:10392800BB80A1B17B4F4FF480713846FDF746FD4F
:10393800860080213846FDF741FD46EA400676B20A
:1039480040213846FDF73AFD3043734B1870724BEF
:103958001A78724B33F81210FF2900F00D81704B62
:103968001B889A420ED068480068066916F0010F55
:1039780000F0B4806FF0010303616A4B01261E70EA
:1039880000234362674B1B78002B00F0DF80218007
:10399800634B1A80644B1A882388D11AB1F5967F35
:1039A80040F30A819B1A03F5B47360490B805F4B9F
:1039B800B3F9001001F109035D480068B3EBA02FCB
:1039C800C0F2FE800A326280594A1368C3EB83232F
:1039D80003EB81239B1213606288534B1A80BDE866
:1039E800F087FEF79BF9474B01221A7038E75149D7
:1039F800097839BB4F494FF0010981F8009000213F
:103A0800DFF8349189F80010DFF8309189F8001058
:103A180060B96FB976B9BCF1000F0DD1BEF1000FD6
:103A28000CD1B8F1000F0BD001216EE701216CE732
:103A380001216AE7012168E7012166E7012164E7BE
:103A4800002162E7002160E73B4A1278002A7FF4F0
:103A580062AF38490A7038494FF0010981F800907F
:103A680036490A7060B96FB976B9BCF1000F0DD14B
:103A7800BEF1000F0CD1B8F1000F0BD049464AE750
:103A8800012148E7012146E7012144E7012142E7F6
:103A9800012140E700213EE7284B1B78002B7FF4EB
:103AA80040AF244A1370244A1370244B01221A7021
:103AB80000287FF437AF002F7FF434AF002E7FF457
:103AC80031AFBCF1000F7FF42DAFBEF1000F7FF4D2
:103AD80029AFB8F1000F7FF425AF38E7184E36F854
:103AE8001370184E3688B6EB570FFFF449AF466A85
:103AF800B6B2144F3E80124F27F81360094B0026C8
:103B08001E703DE7C502002090010020BD02002084
:103B1800BC02002000080048C40200201C0000204D
:103B2800C002002018000020BE020020C6020020AB
:103B380014000020BA020020B9020020B8020020B8
:103B4800C8020020C2020020BB020020ABB21E48FF
:103B580030F8125005FB03F31C4D35F8125093FB57
:103B6800F5F30B449BB2238030F812000D18AB42DA
:103B78007FF70EAF25800BE7154B1988154B33F8E7
:103B88001110154B1B780BB1218003E7ABB20E481F
:103B980030F8125005FB03F30C4D35F8125093FB27
:103BA800F5F30B449BB2238030F812208818834227
:103BB8007FF7F0AE2080EDE69B1A08490B80F6E609
:103BC8002388638000E700BFE0020020C8020020CD
:103BD800C00200201C00002018000020C60200209F
:103BE80010B51920FDF70AFD002211461920FDF72E
:103BF800F5FC1A4C2268D36843F00103D360002116
:103C08002046FFF769F804212046FFF765F80821E8
:103C18002046FFF71FF910212046FFF75DF8142111
:103C28002046FFF759F800212046FFF7E9FA04215A
:103C38002046FFF7E5FA08212046FFF7E1FA084B8E
:103C48005A6C22F0FF025A645A6C42F080025A649D
:103C580040F2A462DA6262B610BD00BF28020020FA
:103C6800002C014038B5154B1A88154BDA63154AF4
:103C780012889A63144A12885A63144C226A1449A7
:103C8800144B01FB0232120B6261626A01FB0232C1
:103C9800120BA261A26A01FB02331B0BE36104F160
:103CA8000C05294604F11400FFF750FD214631F8B0
:103CB800042B2846FFF75AFD38BD00BFF602002046
:103CC800002C0140F4020020F20200208C020020A7
:103CD800B0AD0100A06B15F30144B1F5B47F39DB39
:103CE800A1F5B4718BB24748A0FB03035B094648B2
:103CF8000380B32933DC454B33F8113002FB03F35F
:103D080040F2523000FB03F39B0C0344404803800D
:103D1800772934DC01F13C033C4830F8133002FBCE
:103D280003F340F2523000FB03F3A0EB9340394B0E
:103D380018803B2946DC7831344B33F8113002FBCC
:103D480003F340F2523202FB03F39B0C1344324A52
:103D5800138070470029C5DA01F5B471C2E7A1F1F3
:103D6800B4032A4830F8133002FB03F340F2523010
:103D780000FB03F3A0EB9340254B1880C8E7B1F58F
:103D8800967F0FDAA1F17803204830F8133002FB50
:103D980003F340F2523000FB03F39B0C03441D482D
:103DA8000380C6E7A1F59673184830F8133002FB74
:103DB80003F340F2523000FB03F3A0EB9340154BA2
:103DC8001880B6E7EF290EDC3C39104B33F8113078
:103DD80002FB03F340F2523202FB03F3A2EB9342DD
:103DE8000D4B1A807047F039084B33F8113002FB3D
:103DF80003F340F2523202FB03F39B0C1344064ACE
:103E08001380704789888888F00200205040000895
:103E1800F6020020F4020020F20200200D48854638
:103E2800FDF740FF0C480D490D4A002302E0D45825
:103E3800C4500433C4188C42F9D30A4A0A4C0023EC
:103E480001E013600432A242FBD300F019F8FCF73A
:103E5800E1FBFEE700000220000000202C0000200B
:103E6800C84100082C000020F8020020FEE70244A8
:103E78000346934200D1704703F8011BF9E700009D
:103E880070B50D4D0D4C641BA4100026A64209D137
:103E98000B4D0C4C00F018F8641BA4100026A64229
:103EA80005D170BD55F8043B98470136EEE755F843
:103EB800043B98470136F2E7C0410008C0410008BA
:103EC800C0410008C4410008F8B500BFF8BC08BCF0
:103ED8009E467047F8B500BFF8BC08BC9E467047C0
:103EE800010002000400060008000A000C0010008F
:103EF80020004000800000010000000001020304CF
:103F08000000000000000000010203040607080981
:103F1800706F776572206F6E0000000069646C65D1
:103F280000000000454E434F4445524120726973DA
:103F3800696E67007761697420666F7220454E4329
:103F48004F44455242000000454E434F44455242BB
:103F58002066616C6C696E670000000077616974A7
:103F680020666F7220454E434F4445524100000081
:103F7800636F756E7420757000000000636F756E56
:103F88007420646F776E00006E6F6E65000000002D
:103F98000000120024003600470059006B007D0025
:103FA8008F00A000B200C300D500E600F8000901A8
:103FB8001A012B013C014D015E016F018001900146
:103FC800A001B101C101D101E101F00100020F021C
:103FD8001F022E023D024B025A0268027602840238
:103FE8009202A002AD02BA02C702D402E102ED02B7
:103FF800F902050310031C03270332033C0347039C
:1040080051035B0364036E03770380038803900303
:104018009803A003A703AF03B503BC03C203C803F7
:10402800CE03D303D803DD03E203E603EA03ED037B
:10403800F003F303F603F803FA03FC03FE03FF039C
:10404800FF0300040004000000001E003D005B00A8
:104058007A009800B700D500F300110130014E0135
:104068006C018A01A801C601E30101021E023C029B
:10407800590276029302B002CD02E9020603220336
:104088003E035A0376037E0386038D0395039C0340
:10409800A303AA03B003B703BD03C303C803CE0336
:1040A800D303D703DC03E003E503E903EC03EF03E1
:1040B800F203F503F703FA03FC03FD03FE03FF0312
:1040C80000040004000400040004FE03FD03FC03D4
:1040D800FA03F703F503F203EF03EB03E703E30344
:1040E800DE03D903D403CE03C803C103BA03B40360
:1040F800AC03A4039C0393038A038103770381031E
:104108008A0393039C03A403AC03B403BA03C10357
:10411800C803CE03D403D903DE03E303E703EB03A9
:10412800EF03F203F503F703FA03FC03FD03FE03B1
:1041380000040004000400040004FF03FE03FD0360
:10414800FC03FA03F703F503F203EF03EC03E903B7
:10415800E503E003DC03D703D303CE03C803C3039B
:10416800BD03B703B003AA03A3039C0395038D0300
:1041780086037E0376035A033E0322030603E902FD
:10418800CD02B0029302760259023C021E020102DD
:10419800E301C601A8018A016C014E013001110139
:1041A800F300D500B70098007A005B003D001E00C0
:0841B80030C1FF7F010000008F
:0441C000FD010008F5
:0441C400D901000815
:1041C80001000000100000000024F40014000000AA
:1041D8005A0000000004000001000000FF00000079
:0C41E800000000000000000000000000CB
:0400000508003E258C
:00000001FF
