:020000040800F2
:10000000000002205D390008450700084707000886
:10001000490700084B0700084D07000800000000D2
:100020000000000000000000000000004F07000872
:10003000510700080000000053070008550700089A
:10004000AD390008AD390008AD390008AD390008F8
:10005000AD390008AD390008AD390008AD390008E8
:10006000AD390008AD390008AD390008AD390008D8
:10007000AD390008AD390008AD390008AD390008C8
:10008000AD390008AD390008AD390008AD390008B8
:10009000AD390008AD390008AD390008AD390008A8
:1000A0005D07000875070008AD390008AD39000884
:1000B000AD390008AD390008AD390008AD39000888
:1000C000AD390008AD390008AD390008AD39000878
:1000D000AD390008AD390008AD390008AD39000868
:1000E00085070008AD390008AD390008AD390008B2
:1000F000AD390008AD390008AD390008AD39000848
:10010000AD390008AD390008AD390008AD39000837
:10011000AD390008AD390008AD390008AD39000827
:10012000AD390008AD390008AD390008AD39000817
:10013000AD390008AD390008AD390008AD39000807
:10014000AD390008AD390008AD390008AD390008F7
:10015000AD390008AD390008AD390008AD390008E7
:10016000AD390008AD390008AD390008AD390008D7
:10017000AD390008AD390008AD390008AD390008C7
:10018000AD390008AD390008AD390008AD390008B7
:10019000AD39000800000000AD390008AD39000895
:1001A000AD390008AD390008AD390008AD39000897
:1001B000AD390008AD390008AD390008AD39000887
:1001C000AD390008AD390008AD390008AD39000877
:0801D000AD390008AD3900084B
:1001D80010B5054C237833B9044B13B10448AFF379
:1001E80000800123237010BD3C00002000000000A7
:1001F800083A000808B5034B1BB103490348AFF39D
:10020800008008BD0000000040000020083A0008F7
:100218007BB972B90029BEBF00204FF0004106E04B
:1002280008BF00281CBF6FF000414FF0FF3000F0FE
:10023800D3B9ADF1080C6DE904CE002909DB002B18
:100248001ADB00F04DF8DDF804E0DDE9022304B024
:100258007047404261EB4101002B1BDB00F040F886
:10026800DDF804E0DDE9022304B0404261EB41011E
:10027800524263EB43037047524263EB430300F07F
:100288002FF8DDF804E0DDE9022304B0404261EB19
:1002980041017047524263EB430300F021F8DDF857
:1002A80004E0DDE9022304B0524263EB43037047E4
:1002B80053B94AB9002908BF00281CBF4FF0FF31C5
:1002C8004FF0FF3000F088B9ADF1080C6DE904CEAD
:1002D80000F006F8DDF804E0DDE9022304B0704719
:1002E8002DE9F047089D8E4604468846002B4AD1E2
:1002F8008A42174662D9B2FA82F64EB1C6F1200395
:1003080001FA06F820FA03F3B74043EA0808B440B4
:100318004FEA174E1FFA87FCB8FBFEF1230C0EFBC1
:10032800118843EA084301FB0CF29A4209D9FB18E9
:1003380001F1FF3080F0EA809A4240F2E78002390A
:100348003B449A1AA3B2B2FBFEF00EFB102243EA1A
:10035800024300FB0CFC9C4509D9FB1800F1FF3255
:1003680080F0D6809C4540F2D3803B44023840EA76
:100378000140A3EB0C0300211DB1F3400022C5E9A5
:100388000032BDE8F0878B4205D90DB1C5E90001FF
:1003980000210846F5E7B3FA83F1002946D17345F1
:1003A80002D3824200F20581841A6EEB0302012017
:1003B8009046002DE5D0C5E90048E2E7002A00F0A4
:1003C8009080B2FA82F6002E40F0A4808A1A030CBC
:1003D8004FEA174E80B2BCB20121B2FBFEFC0EFB05
:1003E8001C2243EA024304FB0CF29A4207D9FB1889
:1003F8000CF1FF3802D29A4200F2E080C4469B1A00
:10040800B3FBFEF20EFB123340EA034302FB04F493
:100418009C4207D9FB1802F1FF3002D29C4200F23D
:10042800CA8002461B1B42EA0C40A5E7C1F1200620
:100438008B4022FA06F71F430EFA01F420FA06F35E
:100448002EFA06FE4FEA1749234300FA01F81FFA6D
:1004580087FCBEFBF9F01C0C09FB10EE44EA0E44C5
:1004680000FB0CFEA64502FA01F209D93C1900F17D
:10047800FF3A80F09C80A64540F2998002383C44BF
:10048800A4EB0E041FFA83FEB4FBF9F309FB134433
:100498004EEA044403FB0CFCA44508D93C1903F1BB
:1004A800FF3E80F08280A4457FD9023B3C4443EA6A
:1004B8000040A4EB0C04A0FB02EC64457346E14643
:1004C80062D35FD05DB1B8EB030264EB090404FAB0
:1004D80006F622FA01F31E43CC40C5E90064002168
:1004E8004FE7B1FBF2FC010C41EA0E4180B240EA51
:1004F80001423B4638463C46B846BE462026B1FB3C
:10050800F7F1A2EB080241EA0C4166E7014618E759
:1005180010462CE7C6F120022EFA02F3B740B1408C
:1005280020FA02F24FEA174E0A43B3FBFEF8BCB2B8
:100538000EFB1833110C41EA034108FB04F9B040E3
:1005480089454FEA104380B23ED9791808F1FF3C3B
:1005580001D289451FD8A1EB0901B1FBFEF909FBBE
:1005680004F80EFB191192B242EA0142424529D21F
:10057800BA1809F1FF31C4D24245C2D2A9F1020129
:100588003A44BEE7F0459DD2BEEB02036CEB070C84
:100598000138E14696E7A7EB09094944A8F1020C9E
:1005A800B1FBFEF909FB04F8DBE773467FE7504629
:1005B80066E70846FDE63B44023A33E7ACF1020C35
:1005C8003B441CE749469CE7A1EB0901C446B1FB43
:1005D800FEF909FB04F8C4E7704700BF72B6FEE7EE
:1005E80000B595B03822002106A803F0DCF90020F8
:1005F8000190029003900490059000F03BFF0223C5
:1006080006934FF48072099240220A920D930E933A
:1006180004220F925522109211931293139306A855
:1006280000F02AFA80B90F230193032302930023D1
:1006380003930493059304210DEB010000F0D2FC11
:1006480020B915B05DF804FBFFF7C8FFFFF7C6FF38
:1006580008B500F0C3F9FFF7C3FF00F023F801F075
:10066800B9FC01F07FFB01F055FB01F0ABFB00206A
:1006780000F0E2F80121002000F002F908494FF4E7
:10068800E1330B600020486008814881888100F0D0
:1006980063F910B902F0A6FBFCE7FFF79FFF00BF64
:1006A8005800002070B58AB0002405940694079479
:1006B800089409941F4BDA6C42F00402DA64DA6C8D
:1006C80002F004020192019ADA6C42F02002DA6424
:1006D800DA6C02F020020292029ADA6C42F001020D
:1006E800DA64DA6C02F001020392039ADA6C42F0DF
:1006F8000202DA64DB6C03F002030493049B0E4EDF
:1007080022460121304600F084FE01250595069514
:100718000794089405A9304600F08AFD0323059341
:1007280006940795089405A94FF0904000F080FDC5
:100738000AB070BD0010024000040048FEE7FEE762
:10074800FEE7FEE7FEE770477047704708B500F020
:1007580055F908BD08B5034801F070FE024801F0DC
:100768006DFE08BDEC0100200801002008B5024814
:1007780001F064FE08BD00BFEC01002008B50020B0
:1007880000F0C2F808BD000000B583B00B4B1A6E2C
:1007980042F001021A661A6E02F001020092009AF3
:1007A8009A6D42F080529A659B6D03F080530193D5
:1007B800019B00F0E5FE03B05DF804FB0010024069
:1007C80030B589B01B4BDA6C42F00102DA64DA6C9E
:1007D80002F001020092009ADA6C42F00102DA6437
:1007E800DA6C02F001020192019ADA6D42F001021C
:1007F800DA65DB6D03F001030293029B0423039384
:10080800022404940694012305930C2507950DEB07
:1008180005014FF0904000F00BFD0823039304946A
:1008280007950DEB05014FF0904000F001FD09B070
:1008380030BD00BF0010024030B587B00F4BDA6CF6
:1008480042F00102DA64DB6C03F001030093009BC1
:100858002025019501230293002403940323049384
:1008680001A94FF0904000F0E3FC224629464FF0E2
:10087800904000F0CEFD204607B030BD0010024089
:1008880010B586B01B4BDA6C42F00402DA64DB6CFC
:1008980003F004030093009B4FF4005301930223D9
:1008A8000393049341B90023029301A9124800F06D
:1008B800BFFC002006B010BD04464FF48813029315
:1008C80001A90D4800F0B4FC0C4B03EBC4040C491F
:1008D800204600F0B4FD0B4A0021204600F0A7FD99
:1008E80000220F21282000F0A7FE282000F0B4FEE7
:1008F800DFE700BF0010024000080048FC000020AD
:100908000D0000062709000808B5034B03EBC000DB
:1009180000F09CFD08BD00BFFC000020704708B532
:100928000020FFF7FBFF08BD08B50A4A02600A6805
:1009380042600C2242614A8902614A6882600A89DF
:10094800C2608A8982614FF40042C26101F0A5F950
:1009580008BD00BF0080004001280ED838B50D46FC
:100968009423094C03FB00442046FFF729FF29463E
:100978002046FFF7D9FF18B938BD6FF0010070475E
:100988006FF00300F8E700BF68000020104B1B68F9
:100998000BB90120704710B504464FF47A70B0FBCC
:1009A800F3F30C4A1068B0FBF3F000F059FE68B995
:1009B8000F2C01D901200AE0002221464FF0FF3018
:1009C80000F03AFE044B1C60002000E0012010BD3E
:1009D80000000020080000200400002010B50320BB
:1009E80000F018FE0020FFF7D1FF10B101242046C7
:1009F80010BD0446FFF7C8FEF9E70000034A136874
:100A0800034909680B441360704700BF04010020C4
:100A180000000020014B1868704700BF0401002047
:100A2800124BDA6802F00302DB68C3F303130133E5
:100A3800032A11D00E48B0FBF3F00C4BDB68C3F36C
:100A4800062303FB00F0094BDB68C3F34163013362
:100A58005B00B0FBF3F070470648B0FBF3F0034BC4
:100A6800DB68C3F3062303FB00F0ECE70010024049
:100A78000024F40000366E01002800F04F8270B5A3
:100A880082B00446036813F0010F37D0A44A936874
:100A980003F00C03D26802F003020C2B23D0082BBE
:100AA80023D06368B3F5803F4ED0B3F5A02F51D063
:100AB8009B4B1A6822F480321A601A6822F480224A
:100AC8001A606368002B52D0FFF7A4FF0546944BC9
:100AD8001B6813F4003F11D1FFF79CFF401B6428EB
:100AE800F5D9032023E2032AD9D18D4B1B6813F4CF
:100AF800003F03D06368002B00F01282236813F0D4
:100B0800020F5DD0864A936803F00C03D26802F0A6
:100B180003020C2B3AD0042B3AD0E368002B75D093
:100B28007F4A136843F480731360FFF773FF054629
:100B38007B4B1B6813F4806F5FD1FFF76BFF401B83
:100B48000228F5D90320F2E1754A136843F480338B
:100B58001360B6E703F18043A3F53C331A6842F407
:100B680080221A601A6842F480321A60A9E7FFF7F7
:100B780051FF05466A4B1B6813F4003FBED0FFF7D0
:100B880049FF401B6428F5D90320D0E1022AC2D1CD
:100B9800634B1B6813F4806F03D0E368002B00F0ED
:100BA800C1815F4A536823F0FE43216943EA016328
:100BB80053605C4B1868FFF7E9FE002840F0B481E9
:100BC800236813F0080F4CD063699BB3544AD2F8DA
:100BD800943043F00103C2F89430FFF71BFF054639
:100BE8004F4BD3F8943013F0020F3AD1FFF712FFAE
:100BF800401B0228F4D9032099E1494A536823F09D
:100C0800FE43216943EA01635360D9E7444A136804
:100C180023F480731360FFF7FDFE0546404B1B6805
:100C280013F4806FCCD0FFF7F5FE401B0228F5D9EE
:100C380003207CE13A4AD2F8943023F00103C2F849
:100C48009430FFF7E7FE0546354BD3F8943013F0A0
:100C5800020F06D0FFF7DEFE401B0228F4D903205E
:100C680065E1236813F0040F00F081802C4B9B6D25
:100C780013F0805F36D12A4B9A6D42F080529A6504
:100C88009B6D03F080530193019B0125264B1B6844
:100C980013F4807F28D0A368012B39D0052B45D0C9
:100CA8001F4BD3F8902022F00102C3F89020D3F80C
:100CB800902022F00402C3F89020A368002B43D0B0
:100CC800FFF7A8FE0646164BD3F8903013F0020F34
:100CD8004CD1FFF79FFE801B41F288339842F2D92E
:100CE800032024E10025D1E70F4A136843F48073F9
:100CF8001360FFF78FFE06460B4B1B6813F4807FCB
:100D0800C9D1FFF787FE801B0228F5D903200EE121
:100D1800034AD2F8903043F00103C2F89030CCE790
:100D2800001002400400002000700040884BD3F8F7
:100D3800902042F00402C3F89020D3F8902042F0AB
:100D48000102C3F89020B8E7FFF764FE0646804B1F
:100D5800D3F8903013F0020F08D0FFF75BFE801B2A
:100D680041F288339842F2D90320E0E0E5B92368DC
:100D780013F0200F35D0A369E3B1754AD2F8983043
:100D880043F00103C2F89830FFF744FE0546704B64
:100D9800D3F8983013F0020F23D1FFF73BFE401B26
:100DA8000228F4D90320C2E0694A936D23F08053E6
:100DB8009365DCE7664AD2F8983023F00103C2F85D
:100DC8009830FFF727FE0546614BD3F8983013F0AB
:100DD800020F06D0FFF71EFE401B0228F4D903209D
:100DE800A5E0E369002B00F0A180594A926802F05F
:100DF8000C020C2A64D0022B13D0554A136823F036
:100E080080731360FFF706FE0446514B1B6813F00E
:100E1800007F4ED0FFF7FEFD001B0228F5D9032006
:100E280085E04B4A136823F080731360FFF7F2FDE7
:100E38000546474B1B6813F0007F06D0FFF7EAFD15
:100E4800401B0228F5D9032071E0414AD368414983
:100E58001940236A606A013843EA0013A06A43EA2A
:100E68000023206B4008013843EA4053606B400878
:100E7800013843EA4063E06A43EAC0631943D1603A
:100E8800136843F080731360D36843F08073D360B2
:100E9800FFF7C0FD04462E4B1B6813F0007F06D1F8
:100EA800FFF7B8FD001B0228F5D903203FE000201A
:100EB8003DE0274AD168284B0B40D360002036E03C
:100EC800012B36D0224BDB6803F00301226A9142E2
:100ED80031D103F0F002616A0139B2EB011F2CD164
:100EE80003F4FE42A16AB2EB012F28D103F0784245
:100EF800E16AB2EBC16F24D103F4C001226B52083E
:100F0800013AB1EB425F1ED103F0C063626B520835
:100F1800013AB3EB426F18D1002008E00120704776
:100F2800012004E0012002E0012000E0002002B0DE
:100F380070BD0120FBE70120F9E70120F7E7012058
:100F4800F5E70120F3E70120F1E70120EFE700BF13
:100F5800001002400C809F01FCFFEEFE1E4B9B68B8
:100F680003F00C03042B33D01B4B9B6803F00C03DA
:100F7800082B2FD0184B9B6803F00C030C2B01D0C7
:100F880000207047144BDA6802F00302DB68C3F3F1
:100F980003130133032A11D01048B0FBF3F00E4BB2
:100FA800DB68C3F3062303FB00F00B4BDB68C3F3DA
:100FB800416301335B00B0FBF3F070470848B0FBB6
:100FC800F3F0054BDB68C3F3062303FB00F0ECE703
:100FD8000248704702487047001002400024F4009D
:100FE80000366E01002800F0E680F8B50C4605468C
:100FF800744B1B6803F00F038B420BD2714A1368C2
:1010080023F00F030B431360136803F00F038B42A5
:1010180040F0D3802E6816F001065FD06B68032B72
:101028002FD0022B4DD0684B1B6813F4806F00F053
:10103800C680FFF793FF654B98424DD9624A936883
:1010480023F0F00343F08003936080265E4A9368A0
:1010580023F0030369680B439360FFF7DBFC074643
:10106800594B9B6803F00C036A68B3EB820F35D0C9
:10107800FFF7D0FCC01B41F288339842F0D9032017
:1010880078E0514B1B6813F0007F01D1012071E01B
:10109800FFF7C6FC4D4B98421AD94B4B9B6813F08F
:1010A800F00F05D02E6816F00206CFD0AB688BB9CA
:1010B800454A936823F0F00343F080039360802649
:1010C800C4E7414B1B6813F4003FB2D1012051E043
:1010D8000026BBE70026B9E70026B7E72B6813F020
:1010E800020F48D013F0040F04D0374A936843F432
:1010F800E06393602B6813F0080F06D0324A9368B8
:1011080023F47C5343F4E06393602F4A936823F0FD
:10111800F003A9680B4393602A4B1B6803F00F0385
:10112800A34230D82B6813F0040F06D0264A9368E0
:1011380023F4E063E9680B4393602B6813F0080F0E
:1011480007D0214A936823F46053296943EAC1030D
:101158009360FFF703FF1C4B9B68C3F303131C4A00
:10116800D35C03F01F03D8401A4B18601A4B186859
:10117800FFF70CFCF8BD802ECED1134A936823F0FC
:10118800F0039360C8E70F4A136823F00F03234363
:101198001360FFF73FFC06460A4B1B6803F00F037A
:1011A800A342BFD0FFF736FC801B41F28833984238
:1011B800F2D90320DEE7012070470120DAE7012099
:1011C800D8E700BF002002400010024000B4C40469
:1011D800403A00080800002004000020014B18686D
:1011E800704700BF0800002008B5FFF7F7FF054B60
:1011F8009B68C3F30223044AD35C03F01F03D8405F
:1012080008BD00BF00100240383A000808B5FFF7D3
:10121800E5FF054B9B68C3F3C223044AD35C03F084
:101228001F03D84008BD00BF00100240383A00082C
:10123800F0B583B0002362E085685E000324B44003
:1012480025EA0405CC68B4402C438460456825EA47
:101258000C054C68C4F300149C402C4344605FE0C8
:10126800DD08083550F8254003F0070C4FEA8C0CD0
:101278004FF00F0E0EFA0CFE24EA0E0E0C6904FA5B
:101288000CF444EA0E0440F8254060E0052400E030
:10129800002404FA0EF42C430CF1020C554D45F8C9
:1012A8002C40554CA568D44325EA02064F6817F42C
:1012B800801F01D042EA05064F4DAE60ED6804EA92
:1012C80005064F6817F4001F01D042EA05064A4D8B
:1012D800EE606D6804EA05064F6817F4003F01D018
:1012E80042EA0506444D6E602D682C404E6816F49F
:1012F800803F01D042EA05043F4A146001330A687E
:1013080032FA03F474D04FF0010C0CFA03FC1CEA17
:101318000202F3D04C6804F00304013C012C8BD981
:101328004C6804F00304032C0CD0C4685D004FF033
:10133800030C0CFA05FC24EA0C0C8C68AC4044EA5B
:101348000C04C4604C6804F00304022C88D00468C0
:101358004FEA430E4FF0030C0CFA0EFC24EA0C0C77
:101368004C6804F0030404FA0EF444EA0C04046024
:101378004C6814F4403FC1D0204C256E45F001055F
:101388002566246E04F001040194019C4FEA930C35
:101398000CF10205174C54F8255003F0030E4FEAE0
:1013A8008E0E0F2404FA0EF425EA0405B0F1904FCE
:1013B8003FF46EAF124CA04212D004F58064A042F4
:1013C80010D004F58064A0420ED004F58064A042D9
:1013D8000CD004F58064A0423FF458AF062458E7C7
:1013E800012456E7022454E7032452E7042450E773
:1013F80003B0F0BD000001400004014000100240AD
:10140800000400480369194201D0012070470020F8
:1014180070470AB18161704781627047436901EA88
:10142800030221EA030141EA02418161704711B9CF
:10143800426008467047002343600120704710B19E
:1014480001600020704701207047000010B5036854
:10145800C3F3004203F01F03012199405301044ADA
:101468009C580C4203D09950436803B1984710BD6B
:1014780014040140002836D13E4B1B6803F4C063B6
:10148800B3F5806F08D03B4AD2F8803023F48073DC
:10149800C2F8803000207047364AD2F8803023F4F2
:1014A8008073C2F88030136823F4C06343F4007378
:1014B8001360314B1B68322202FB03F32F4AA2FB55
:1014C80003239B0C013300E0013B2A4A526912F4C2
:1014D800806F01D0002BF7D1264B5B6913F4806F26
:1014E80044D100207047B0F5007F08D0214A136826
:1014F80023F4C06343F480631360002070471D4BDE
:101508001B6803F4C063B3F5806F08D0194AD2F89A
:10151800803043F48073C2F8803000207047154A49
:10152800D2F8803043F48073C2F88030136823F413
:10153800C06343F4007313600F4B1B68322202FB35
:1015480003F30E4AA2FB03239B0C013300E0013B8B
:10155800084A526912F4806F01D0002BF7D1054B6D
:101568005B6913F4806F03D1002070470320704734
:1015780003207047007000400800002083DE1B43F2
:10158800024A936843F480439360704700700040B8
:10159800002807DB00F01F02400901239340024A9C
:1015A80042F82030704700BF00E100E0002808DB67
:1015B8000901C9B200F1604000F5614080F80013EC
:1015C800704700F00F000901C9B2014B1954704768
:1015D80014ED00E000B500F00700C0F1070CBCF105
:1015E800040F28BF4FF0040C031D062B0FD9C31E90
:1015F8004FF0FF3E0EFA0CF021EA000199400EFA76
:1016080003FE22EA0E0241EA02005DF804FB002311
:10161800EEE70000074AD36823F4E0631B041B0CC1
:10162800000200F4E060034343F0BF6343F4003377
:10163800D360704700ED00E010B50446054BD8684C
:10164800C0F30220FFF7C6FF01462046FFF7AEFFB2
:1016580010BD00BF00ED00E008B5FFF799FF08BD19
:101668000138B0F1807F0BD24FF0E0235861054A72
:10167800F02182F823100020986107221A61704730
:101688000120704700ED00E0026852E8003F23F4B3
:10169800907342E800310029F6D1026802F108038C
:1016A80053E8003F23F0805323F00103083242E857
:1016B80000310029F1D1C36E012B06D02023C0F8D8
:1016C8008C300023C36643677047026852E8003FC6
:1016D80023F0100342E800310029F6D1EEE7704705
:1016E80070B5044683680269134342691343C269AB
:1016F800134301680868964A02401A430A60226840
:10170800536823F44053E1680B435360A16922688E
:10171800904B9A4201D0236A1943936823F06E4391
:1017280023F430630B4393602268D36A23F00F03DA
:10173800616A0B43D3622368874A934226D0874A5B
:10174800934237D0864A93424DD0864A93425DD021
:10175800854A93426CD07F4A93427ED010227D49BD
:101768008B4200F0B380E069B0F5004F00F00481CF
:10177800082A00F26F81DFE812F0320154013001CB
:101788006D0157016D016D016D015A0102F5584255
:10179800D2F8882002F00302032A09D8DFE802F011
:1017A800020472060122DAE70422D8E70822D6E703
:1017B8001022D4E702F5E632D2F8882002F00C02B3
:1017C8000C2A0ED8DFE802F0070D0D0D090D0D0DDE
:1017D800600D0D0D0B000022C1E70422BFE70822AF
:1017E800BDE71022BBE702F5E432D2F8882002F008
:1017F8003002202A4AD005D8002A49D0102A49D1D7
:101808000422ACE7302A47D10822A8E702F5E232E1
:10181800D2F8882002F0C002802A3FD004D8FAB358
:10182800402A3FD104229AE7C02A3DD1082296E7F0
:1018380002F5E032D2F8882002F44072B2F5007F57
:1018480034D005D8A2B3B2F5807F33D1042286E71D
:10185800B2F5407F30D1082281E702F5C832D2F8CC
:10186800882002F44062B2F5006F27D005D83AB359
:10187800B2F5806F26D1042271E7B2F5406F23D10B
:1018880008226CE702226AE7022268E7022266E77A
:10189800002264E7102262E7102260E702225EE776
:1018A80000225CE710225AE7102258E7022256E786
:1018B800002254E7102252E7102250E702224EE796
:1018C80000224CE710224AE7102248E7082A00F2D3
:1018D800B180DFE802F008AF3BAF38AFAFAF05002B
:1018E8004FF4004004E0FFF77FFC002800F0A480DC
:1018F800626A1E4B33F81220B0FBF2F3656805EB01
:101908004501994200F29A80B3EB053F00F29880B6
:10191800002633463146FEF7CBFC090241EA106146
:1019280000026B08C0182A46334641F10001FEF751
:10193800BFFCA0F540720E4B9A4200F283802368E8
:10194800D860304664E0FFF709FBCEE70948CFE7E7
:10195800F369FFCF00800040003801400044004098
:1019680000480040004C004000500040203A000869
:10197800FFFC0F000024F400082A65D8DFE802F015
:10198800072705642A6464640B00354803E0FFF701
:101998002BFC00285AD0626A324B33F81230B0FB65
:1019A800F3F06268530803EB4003B3FBF2F3A3F1CF
:1019B80010014FF6EF7291424AD89AB222F00F0204
:1019C800C3F3420313432268D360002020E0FFF7EB
:1019D8001DFCDEE7FFF7C2FADBE7214803E0FFF76B
:1019E80003FC002838D0626A1E4B33F81230B0FB73
:1019F800F3F0636800EB5300B0FBF3F0A0F11002C2
:101A08004FF6EF739A4229D8236880B2D860002035
:101A18000123A4F86A30A4F8683000236367A36739
:101A280070BDFFF7F3FBDCE7FFF798FAD9E74FF44F
:101A38000040D8E70120EBE70020E9E70120E7E7CD
:101A48000120E5E70120E3E70120E1E70020DFE7E7
:101A58000120DDE70120DBE70020D9E70120D7E7F7
:101A68000024F400203A0008836A13F0080F06D017
:101A78000268536823F40043816B0B435360836A05
:101A880013F0010F06D00268536823F40033C16ACB
:101A98000B435360836A13F0020F06D00268536841
:101AA80023F48033016B0B435360836A13F0040FF4
:101AB80006D00268536823F48023416B0B435360BC
:101AC800836A13F0100F06D00268936823F48053DA
:101AD800C16B0B439360836A13F0200F06D0026832
:101AE800936823F40053016C0B439360836A13F0EB
:101AF800400F0AD00268536823F48013416C0B43EB
:101B08005360436CB3F5801F0BD0836A13F0800FCA
:101B180006D00268536823F40023C16C0B4353605A
:101B280070470268536823F4C003816C0B43536009
:101B3800EBE72DE9F84305460E4617469946DDF8CA
:101B480020802B68DC6936EA04040CBF01240024D9
:101B5800BC4236D1B8F1FF3FF3D0FEF75BFFA0EBF4
:101B68000900404530D8B8F1000F2FD02B681A680B
:101B780012F0040FE5D0802EE3D0402EE1D0DA69D0
:101B880012F0080F11D1DA6912F4006FD9D04FF4AE
:101B980000621A622846FFF777FD2023C5F89030C7
:101BA800002385F8843003200CE008241C622846B2
:101BB800FFF76AFDC5F89040002385F884300120BE
:101BC80000E00020BDE8F8830320FBE70320F9E7E5
:101BD80030B583B004460023C0F89030FEF71AFFF2
:101BE80005462268126812F0080F10D123681B6896
:101BF80013F0040F28D12023C4F88830C4F88C309F
:101C08000020E066206784F8840003B030BD6FF0E0
:101C18007E430093034600224FF400112046FFF74D
:101C280088FF0028E2D0226852E8003F23F08003B2
:101C380042E800310029F6D12023C4F88830002377
:101C480084F884300320E0E76FF07E4300932B464E
:101C580000224FF480012046FFF76BFF0028CAD00E
:101C6800226852E8003F23F4907342E800310029CB
:101C7800F6D1226802F1080353E8003F23F001037C
:101C8800083242E800310029F3D12023C4F88C300F
:101C9800002384F884300320B7E778B310B50446EE
:101CA800D0F888300BB32423C4F88830226813682E
:101CB80023F001031360A36AE3B92046FFF710FD80
:101CC800012811D02268536823F490435360226896
:101CD800936823F02A0393602268136843F0010392
:101CE80013602046FFF774FF10BD80F88430FFF7BB
:101CF800F6FCD8E72046FFF7B7FEDEE7012070477D
:101D0800034AD2F8883043F47003C2F88830704729
:101D180000ED00E000B585B0002301930293039322
:101D28000E480F4A02606B22426083604FF6FF72D2
:101D3800C260836100F0F0FC50B900230193039363
:101D480001A9064800F09AFF28B905B05DF804FB20
:101D5800FEF744FCF1E7FEF741FCF6E7A00100209E
:101D68000010004000B589B0002304930593069342
:101D780007930193029303931048114A026043604A
:101D880083604FF6FF72C26003614361836104A9F7
:101D980000F004FF60B950230193002302930393DA
:101DA80001A9064800F06AFF28B909B05DF804FBEC
:101DB800FEF714FCEFE7FEF711FCF6E754010020EC
:101DC8000034014000B589B00023049305930693BD
:101DD80007930193029303931448154A02604360E2
:101DE80083604FF6FF72C26003614361836100F054
:101DF80093FC90B94FF48053049304A90B4800F066
:101E080023FE68B900230193039301A9074800F052
:101E180035FF40B909B05DF804FBFEF7DFFBE9E7E1
:101E2800FEF7DCFBEEE7FEF7D9FBF3E7080100203D
:101E38000040014000B585B00368224A934208D0AB
:101E4800214A934220D0214A934228D005B05DF818
:101E580004FB1F4B1A6E42F400621A661B6E03F4F1
:101E680000630193019B002211461820FFF7E4FB51
:101E78001820FFF7F1FB002211461920FFF7DCFBC1
:101E88001920FFF7E9FBE1E7114B9A6D42F01002C8
:101E98009A659B6D03F010030293029BD6E70C4BE7
:101EA8001A6E42F480321A661B6E03F48033039371
:101EB800039B002211461820FFF7BEFB1820FFF7EE
:101EC800CBFBC3E7002C014000100040004001405C
:101ED8000010024000B589B00023039304930593D2
:101EE800069307930268134B9A4202D009B05DF833
:101EF80004FB03F55C431A6E42F400521A661A6E2C
:101F080002F400520192019ADA6C42F00402DA6497
:101F1800DB6C03F004030293029B4FF4E07303931A
:101F2800022304930423079303A90348FFF780F9C6
:101F3800DCE700BF0034014000080048F0B589B074
:101F480000230393049305930693079302681F4B9A
:101F58009A4201D009B0F0BD03F56443DA6C42F04F
:101F68000202DA64DA6C02F002020192019ADA6C77
:101F780042F00102DA64DB6C03F001030293029B76
:101F88004FF4C04303930225049506260796104F85
:101F980003A93846FFF74CF94FF40043039304951F
:101FA8000024059406940423079303A93846FFF7F1
:101FB8003FF94FF4E063039304950594069407965C
:101FC80003A94FF09040FFF733F9C3E7002C014015
:101FD8000004004810B59CB00024189419941A9471
:101FE8001B941594169417940E940F9410941194AE
:101FF8001294139414943422214601A801F0D3FCBE
:102008003F48404B03604460202383604FF6FF73D2
:10201800C36004614461846100F07EFB002857D1ED
:102028004FF48053189318A9354800F00DFD002887
:1020380051D1334800F0A0FB00284FD1002315935D
:102048004FF4001316938023179315A92C4800F01A
:1020580015FE002845D160230E934FF400430F93DB
:102068000022109211921292139214920EA92448EF
:1020780000F000FC002837D104220EA9204800F007
:10208800F9FB002833D108220EA91D4800F0F2FB05
:1020980000282FD1002301930293039304934FF454
:1020A800805205924FF400520692079308930993C1
:1020B8004FF000720A920B930C930D9301A91048EC
:1020C80000F032FEC8B90E48FFF738FF1CB010BD4B
:1020D800FEF784FAA4E7FEF781FAAAE7FEF77EFA8C
:1020E800ACE7FEF77BFAB6E7FEF778FAC4E7FEF747
:1020F80075FAC8E7FEF772FACCE7FEF76FFAE2E77F
:10210800EC010020002C014030B4026A036A23F07D
:10211800010303624468836923F4803323F0730363
:102128000D681D4322F002028B681343204A904237
:1021380013D002F5006290420FD002F5406290423F
:102148000BD002F58062904207D002F5806290427F
:1021580003D002F50062904205D123F00803CA6853
:102168001A4322F00403124A904213D002F5006287
:1021780090420FD002F5406290420BD002F5806287
:10218800904207D002F58062904203D002F50062C7
:10219800904205D124F440744A6922438C6914435F
:1021A800446085614A684263036230BC704700BF7F
:1021B800002C014030B4036A026A22F48072026281
:1021C8004468C26922F4803222F073020D68154314
:1021D80023F400738A6843EA02231C4A904207D01A
:1021E80002F50062904203D002F5E052904206D117
:1021F80023F40063CA6843EA022323F48063134A82
:10220800904213D002F5006290420FD002F540626E
:1022180090420BD002F58062904207D002F58062AE
:10222800904203D002F50062904207D124F4405254
:102238004C6942EA04128C6942EA04144460C5619C
:102248004A68C263036230BC704700BF002C01407B
:1022580030B4036A026A22F4805202624468C26996
:1022680022F0807222F4E6420D6842EA052223F445
:1022780000538D6843EA05331B4DA84207D005F586
:102288000065A84203D005F5E055A84206D123F41D
:102298000043CD6843EA053323F48043124DA84236
:1022A80013D005F50065A8420FD005F54065A84292
:1022B8000BD005F58065A84207D005F58065A842D2
:1022C80003D005F50065A84207D124F4404C4C69B9
:1022D8004CEA841C8C694CEA84144460C2614A68E4
:1022E8000264036230BC7047002C014030B4036ABA
:1022F800026A22F4803202624468026D22F480325B
:1023080022F070020D68154323F400338A6843EA0B
:102318000243114A904213D002F5006290420FD056
:1023280002F5406290420BD002F58062904207D0DD
:1023380002F58062904203D002F50062904204D117
:1023480024F480344A6944EA0224446005654A68F2
:102358008264036230BC7047002C014030B4036AC9
:10236800026A22F4801202624468026D22F08072CE
:1023780022F4E0420D6842EA052223F400138D6836
:1023880043EA0553114DA84213D005F50065A8424C
:102398000FD005F54065A8420BD005F58065A84229
:1023A80007D005F58065A84203D005F50065A84269
:1023B80004D124F480244D6944EA852444600265EC
:1023C8004A68C264036230BC704700BF002C0140F9
:1023D80010B4036A046A24F001040462846924F0D6
:1023E800F00C4CEA021223F00A030B4382610362E9
:1023F8005DF8044B704710B4036A046A24F01004B3
:102408000462846924F4704C4CEA023223F0A0037D
:1024180043EA0113826103625DF8044B70478368E5
:1024280023F4401323F070030B4343F00703836046
:1024380070477047704770477047704770B50546DA
:102448000368DE681C6914F0020F10D016F0020F42
:102458000DD06FF002021A610123037703689B69AC
:1024680013F0030F7CD0FFF7E6FF00232B7714F05F
:10247800040F12D016F0040F0FD02B686FF004026F
:102488001A6102232B772B689B6913F4407F6DD068
:102498002846FFF7D0FF00232B7714F0080F12D03F
:1024A80016F0080F0FD02B686FF008021A6104238A
:1024B8002B772B68DB6913F0030F5ED02846FFF7F4
:1024C800BAFF00232B7714F0100F12D016F0100F5C
:1024D8000FD02B686FF010021A6108232B772B6836
:1024E800DB6913F4407F4FD02846FFF7A4FF002391
:1024F8002B7714F0010F02D016F0010F4BD114F412
:10250800025F02D016F0800F4DD114F4807F02D004
:1025180016F0800F4FD114F0400F02D016F0400F84
:1025280051D114F0200F02D016F0200F53D114F41B
:10253800801F02D016F4801F55D114F4001F02D05A
:1025480016F4001F57D114F4800F02D016F4800F30
:1025580059D114F4000F02D016F4000F5BD170BDEE
:10256800FFF768FF2846FFF767FF7EE72846FFF773
:1025780061FF2846FFF760FF8DE72846FFF75AFFFF
:102588002846FFF759FF9CE72846FFF753FF2846E0
:10259800FFF752FFABE72B686FF001021A6128467C
:1025A80001F0FCF8ABE72B686FF402521A61284679
:1025B80000F00FFCA9E72B686FF480721A612846B7
:1025C80000F008FCA7E72B686FF040021A61284664
:1025D800FFF733FFA5E72B686FF020021A61284642
:1025E80000F0F6FBA3E72B686FF480121A61284607
:1025F80000F0F1FBA1E72B686FF400121A6128467E
:1026080000F0EAFB9FE72B686FF480021A61284606
:1026180000F0E3FB9DE72B686FF400021A6128467F
:1026280000F0DCFB9BE7000003683A4A904216D0B2
:10263800B0F1804F13D0A2F5943290420FD002F53A
:10264800806290420BD002F58062904207D002F57A
:102658009432904203D002F5E052904203D123F025
:1026680070034A6813432B4A904222D0B0F1804F3E
:102678001FD0A2F5943290421BD002F5806290429E
:1026880017D002F58062904213D002F5943290423E
:102698000FD002F5406290420BD002F58062904262
:1026A80007D002F58062904203D002F500629042A2
:1026B80003D123F44073CA68134323F080034A69A3
:1026C800134303608B68C3620B688362114B9842A3
:1026D80013D003F5006398420FD003F54063984286
:1026E8000BD003F58063984207D003F580639842C6
:1026F80003D003F50063984201D10B6903630123FA
:102708004361036913F0010F03D0036923F0010348
:1027180003617047002C014060B310B5044690F87F
:102728003D3013B3022384F83D30214651F8040BA1
:10273800FFF77AFF012384F8483084F83E3084F8A4
:102748003F3084F8403084F8413084F8423084F8CF
:10275800433084F8443084F8453084F8463084F8AF
:10276800473084F83D30002010BD80F83C30FFF73A
:1027780061FBD7E70120704760B310B5044690F8B5
:102788003D3013B3022384F83D30214651F8040B41
:10279800FFF74AFF012384F8483084F83E3084F874
:1027A8003F3084F8403084F8413084F8423084F86F
:1027B800433084F8443084F8453084F8463084F84F
:1027C800473084F83D30002010BD80F83C30FFF7DA
:1027D80030FED7E70120704730B4036A026A22F05E
:1027E800100202624468826922F0807222F4E64292
:1027F8000D6842EA052223F020038D6843EA051399
:102808001B4DA84207D005F50065A84203D005F581
:10281800E055A84206D123F08003CD6843EA0513AA
:1028280023F04003124DA84213D005F50065A842D5
:102838000FD005F54065A8420BD005F58065A84284
:1028480007D005F58065A84203D005F50065A842C4
:1028580007D124F4406C4C694CEA840C8C694CEA2E
:102868008404446082614A688263036230BC7047B2
:10287800002C014038B590F83C30012B00F09580D1
:1028880004460D46012380F83C30142A00F2888063
:10289800DFE802F00B8686861F8686863486868663
:1028A800488686865D86868671000068FFF72CFC60
:1028B8002268936943F0080393612268936923F0BF
:1028C800040393612268936929690B43936100208B
:1028D80067E00068FFF780FF2268936943F40063AC
:1028E80093612268936923F48063936122689369F2
:1028F800296943EA01239361002052E00068FFF749
:1029080059FC2268D36943F00803D3612268D3696C
:1029180023F00403D3612268D36929690B43D36187
:1029280000203EE00068FFF793FC2268D36943F477
:102938000063D3612268D36923F48063D36122687A
:10294800D369296943EA0123D361002029E000689B
:10295800FFF7CCFC2268136D43F008031365226867
:10296800136D23F0040313652268136D29690B4363
:102978001365002015E00068FFF7F0FC2268136D6E
:1029880043F4006313652268136D23F480631365B1
:102998002268136D296943EA01231365002000E0CA
:1029A8000120002384F83C3038BD0220FCE70000F9
:1029B80070B49446066A046A24F0010404628469C7
:1029C800184DA8421CD0B0F1804F19D0164A904239
:1029D80016D002F58062904212D002F580629042D1
:1029E8000ED002F5943290420AD002F5406290422D
:1029F80006D002F58052904202D044F0010203E072
:102A080024F0030242EA0C0222F0F0021B01DBB2BE
:102A1800134326F00A0201F00A011143836101629F
:102A280070BC7047002C01400004004010B484685A
:102A380024F47F4C42EA03220A4342EA0C028260F1
:102A48005DF8044B7047000090F83C30012B00F013
:102A58009B8010B50446012380F83C30022380F89F
:102A68003D3002689068494B034093600B68702BB7
:102A780061D031D8502B78D01FD8402B0AD1CA68E2
:102A880049682068FFF7A4FC40212068FFF7C7FCCD
:102A9800002029E074D8202B03D00AD80BB1102BC2
:102AA80005D119462068FFF7BAFC00201CE0012078
:102AB8001AE0302BF5D0012016E0602B0AD1CA6845
:102AC80049682068FFF797FC60212068FFF7A7FC9A
:102AD800002009E0012007E0B3F5005F38D00AD8EC
:102AE800B3F5805F4ED10020012384F83D300023E8
:102AF80084F83C3010BD264A9342D2D010D8203AF0
:102B08009342CED007D8B3F5801FCAD0B3F1101FB7
:102B1800C7D00120E8E71F4A9342C2D00120E3E76B
:102B28001D4A9342BDD010329342BAD0203A934204
:102B3800B7D00120D8E7CB684A6889682068FFF7D2
:102B480075FF2268936843F0770393600020CBE712
:102B5800CB684A6889682068FFF768FF226893682D
:102B680043F4804393600020BEE7CA684968206840
:102B7800FFF72EFC50212068FFF751FC0020B3E737
:102B88000120B1E70120AFE7022070478800CEFF9F
:102B980040001000300010006000100000286BD0CA
:102BA80070B588B00E46044690F83D30002B5ED0D4
:102BB800022384F83D30214651F8040BFFF734FD19
:102BC800B368032231682068FFF7F2FE2268936930
:102BD80023F00C0393612268936971680B43936136
:102BE8002268536843F0800353602268936823F493
:102BF800401323F0700393602268936843F0400306
:102C080093602268936823F4803323F0070393606A
:102C18002268936843F004039360002505950695A0
:102C280070230193079504950395F368029301A90E
:102C38002068FFF7D1FD2268536823F0007323F062
:102C4800700353602268536843F0500353600123B4
:102C580084F8483084F83E3084F83F3084F84430B3
:102C680084F8453084F83D30284608B070BD80F8B7
:102C78003C30FFF72FF99BE70120704790F83C2084
:102C8800012A4CD030B40346012280F83C200222AD
:102C980080F83D20006842688468224DA84207D029
:102CA80005F50065A84203D005F5E055A84203D113
:102CB80022F470024D682A4322F0007222F070025A
:102CC8000D682A4342601A68164882421AD0B2F147
:102CD800804F17D0A0F59430824213D000F5806061
:102CE80082420FD000F5806082420BD000F594300C
:102CF800824207D000F54060824203D000F5805040
:102D0800824204D124F08004896821439160012221
:102D180083F83D20002083F83C0030BC7047022037
:102D2800704700BF002C014090F83C30012B4AD07E
:102D380010B40246012380F83C30CB6823F440737A
:102D48008868034323F480634868034323F40063DB
:102D58000868034323F480530869034323F40053AA
:102D68004869034323F48043086B034323F4702327
:102D7800886943EA004323F08053C8690343106815
:102D8800124CA04207D004F50064A04203D004F519
:102D9800E054A04210D123F470038C6A43EA045330
:102DA80023F080730C6A234323F000734C6A234397
:102DB80023F00053C96A0B434364002082F83C00A7
:102DC8005DF8044B70470220704700BF002C01409B
:102DD800704770477047704770477047704740F3B7
:102DE8008F20704710B582B000230193FF23009312
:102DF80002234FF090420121104600F03DF880B2C6
:102E0800174B1880174B1B782BB900F073F9154B2B
:102E1800187002B010BD144C204600F0F9FAA068F2
:102E28004042FFF7DCFF114B1A6810441860642811
:102E380001DD50221A600D4B1B684F2B02DC0B4B37
:102E48003C221A60064B1A88084B1968064B1888EA
:102E580000F0DEFC064B1B68DA6A064B1A80D8E7DE
:102E68000C00002038020020500200201000002032
:102E7800A00100203A0200202DE9F04715469946A6
:102E8800089F099E3E4C94F80080FEF7BBFA40EA82
:102E980048002070DFF8208198F800A049462846AD
:102EA800FEF7B0FA40EA4A00C0B288F8000023787A
:102EB800344A127802BB344B344A1A60344B354AD0
:102EC8001A60314B1B68344A93424ED0334A9342BE
:102ED80050D0334B1B68BB4201DD314B1F60304B78
:102EE8001B68B34201DA2E4B1E60264B01221A7072
:102EF8002B4B1868BDE8F08703F00F0300F00F00B4
:102F0800234A126823498A420BD08A4212D02549A3
:102F18008A4218D024498A421ED01B4B234A1A6081
:102F2800CFE7032BF1D1184B214A1A60184B1D4AE1
:102F38001A60C6E70E28EAD1134B1E4A1A60144BD2
:102F4800194A1A60BDE70328E4D10F4B124A1A60E8
:102F58000F4B104A1A60B4E70E2BDED10A4B0F4A0A
:102F68001A600B4B0B4A1A60ABE70D490A6801322D
:102F78000A60ABE70A4A1368013B1360A9E700BF80
:102F88004D0200203C02002044020020503A000874
:102F9800400200205C3A0008B03A0008BC3A000839
:102FA80048020020743A00089C3A0008C83A000811
:102FB800643A0008883A00084C020020B0F5B47F53
:102FC80002D3A0F5B47080B2592816D9A0F15A03DB
:102FD8009BB2592B15D9A0F1B4039BB2592B16D922
:102FE800A0F587739BB2592B18D8C0F5B4700C4B59
:102FF80033F81000404200B27047094B33F9100013
:103008007047C0F1B400064B33F910007047B4386C
:10301800034B33F81000404200B27047002070475D
:10302800D03A000800F15A039BB2B3F5B47F02D33B
:10303800A0F5877083B2592B16D9A3F15A0292B220
:10304800592A15D9A3F1B40292B2592A16D9A3F56F
:10305800877292B2592A18D8C3F5B4730C4A32F859
:103068001300404200B27047094A32F91300704712
:10307800C3F1B403064A32F913007047B43B044A5B
:1030880032F81300404200B270470020704700BF7A
:10309800D03A000810B50C4603680B604168836895
:1030A800C91A40F2ED62002388028915FDF7B0F8CD
:1030B800606010BD2DE9F04107460D461FFA82F801
:1030C8004046FFF7AFFF06467C6800FB04F4404625
:1030D800FFF774FF3B6803FB1044A4122C603B68A5
:1030E8007A6802FB00F003FB060080126860BDE806
:1030F800F08100002DE9F8430446A84B1B7853B92A
:10310800A74B1B684FF4B472DA6242F210729A62EB
:10311800A24B01221A70A24B1B685B6A9BB2A14AA0
:103128001380A14A1380A14E3578A14F402138461B
:10313800FEF768F940EA450030709E4D95F800802A
:1031480080213846FEF75EF940EA48002870DFF82B
:10315800908298F800904FF480713846FEF752F943
:1031680040EA4903DBB288F80030317801F00F01FA
:10317800032914BF002001200E2914BF00260126B0
:103188002A7802F00F02032A14BF002501250E2A0F
:1031980014BF0027012703F00F03032B14BF4FF0C0
:1031A800000C4FF0010C0E2B14BF4FF0000E4FF027
:1031B800010E0E295BD0032959D000210E2A00F0F8
:1031C8008180032A7ED00E2B00F0A280032B00F012
:1031D8009F80002948D04FF480517748FEF71EF9A8
:1031E800764B1B886F4A1288934280F0B280D31ABC
:1031F80073490B80714B1A806D4E4FF480713046C5
:10320800FEF700F9074680213046FEF7FBF8450037
:1032180045EA87056DB240213046FEF7F3F82843AA
:10322800C0B2674B1B882E3B9BB21C2B1AD8654D2E
:1032380035F810205B4B1B8802FB03F3013293FB2C
:10324800F2F39BB2604921F8103025F810205F4A4C
:10325800127831F81220934240F281809B1A5C4A1E
:1032680022F81030594B1870002319467FE059494D
:10327800097829BB57494FF0010881F800800021DF
:10328800DFF8548188F80010DFF8508188F80010C2
:1032980050B95EB965B96FB9BCF1000F0CD1BEF178
:1032A800000F0BD0012189E7012187E7012185E77C
:1032B800012183E7012181E701217FE700217DE7E3
:1032C80000217BE7444A1278002A7FF47CAF414909
:1032D8000A7041494FF0010881F800803F490A709F
:1032E80050B95EB965B96FB9BCF1000F0CD1BEF128
:1032F800000F0BD0414666E7012164E7012162E730
:10330800012160E701215EE701215CE700215AE71E
:10331800324B1B78002B7FF45CAF2E4A13702E4A79
:1033280013702E4B01221A7000287FF454AF002E20
:103338007FF451AF002D7FF44EAF002F7FF44BAFD9
:10334800BCF1000F7FF447AFBEF1000F7FF443AF2D
:103358008AE7D31A03F5B47319490B804AE79B1A15
:1033680003F5B4731A4A22F810307BE70133072BB0
:1033780008DC144A32F813C0BCF1FF0FF6D901314A
:1033880089B2F3E706293AD0002522460021054BE9
:10339800188800F03DFA2846BDE8F883A30200200B
:1033A800A0010020A402002050020020A802002052
:1033B80000080048A7020020000400489E020020E0
:1033C800AA0200202C0000201C0000209C020020E3
:1033D800AC020020A2020020A1020020A0020020CE
:1033E800A60200200133072B0BDC074A32F8132012
:1033F800FF2AF7D8054AFF2122F81310F2E7002325
:10340800F1E70125C1E700BF2C0000201C000020C7
:103418002DE9F0470446AA4B1B78002B00F0BE802C
:10342800A84B1B685D6AA84F3E78DFF8A49240213C
:103438004846FDF7E7FF40EA46003870A34E96F885
:10344800008080214846FDF7DDFF40EA48003070E3
:10345800DFF8B08298F800A04FF480714846FDF775
:10346800D1FF40EA4A03DBB288F80030397801F02E
:103478000F01032914BF002001200E2914BF0027C3
:103488000127327802F00F02032A14BF0026012612
:103498000E2A14BF4FF0000C4FF0010C03F00F037D
:1034A800032B14BF4FF0000E4FF0010E0E2B14BF6C
:1034B8004FF000084FF001080E2975D0032973D08A
:1034C80000210E2A00F09D80032A00F09A800E2B1E
:1034D80000F0BF80032B00F0BC80A9B17C4F4FF4F3
:1034E80080713846FDF78EFF804680213846FDF70B
:1034F80089FF460046EA880676B240213846FDF73D
:1035080081FF3043734B1870724B1A78724B33F843
:103518001210FF2900F00E81704B1B889A420ED0C2
:1035280068480068066916F0010F00F0B4806FF073
:10353800010303616A4B01261E7000234362684B36
:103548001B78002B00F0E0802180644B1A80654BCB
:103558001A882388D11AB1F5967F40F30B819B1AFC
:1035680003F5B47360490B805F4BB3F9001001F1A8
:1035780009035E480068B3EBA02FC0F2FF800A324F
:1035880062805A4A1368C3EB832303EB81239B129F
:1035980013606288534B1A80BDE8F087FEF7BAFBC8
:1035A800474B01221A703BE75149097839BB50490A
:1035B8004FF0010981F800900021DFF8389189F86F
:1035C8000010DFF8349189F8001060B96FB976B946
:1035D800BCF1000F0DD1BEF1000F0CD1B8F1000FF6
:1035E8000BD001216DE701216BE7012169E701217A
:1035F80067E7012165E7012163E7002161E7002111
:103608005FE73C4A1278002A7FF461AF38490A70B4
:1036180038494FF0010981F8009037490A7060B9BC
:103628006FB976B9BCF1000F0DD1BEF1000F0CD106
:10363800B8F1000F0BD0494649E7012147E70121BE
:1036480045E7012143E7012141E701213FE7002147
:103658003DE7294B1B78002B7FF43FAF244A1370BA
:10366800244A1370244B01221A7000287FF436AFC5
:10367800002F7FF433AF002E7FF430AFBCF1000F82
:103688007FF42CAFBEF1000F7FF428AFB8F1000F24
:103698007FF424AF38E7194E36F81370184E368881
:1036A800B6EB570FFFF449AF466AB6B2144F3E80E7
:1036B800124F27F813600A4B00261E703DE700BF23
:1036C80089020020A0010020810200208002002041
:1036D80000080048880200201C0000208402002006
:1036E80018000020820200208A0200201400002016
:1036F8007E0200207D0200207C0200208C02002037
:10370800860200207F020020ABB21E4830F812501B
:1037180005FB03F31C4D35F8125093FBF5F30B44EE
:103728009BB2238030F812000D18AB427FF70DAF23
:1037380025800AE7154B1988154B33F81110154BDE
:103748001B780BB1218002E7ABB20E4830F812505B
:1037580005FB03F30C4D35F8125093FBF5F30B44BE
:103768009BB2238030F81220881883427FF7EFAE8F
:103778002080ECE69B1A08490B80F5E623886380D5
:10378800FFE600BFAC0200208C020020840200206B
:103798001C000020180000208A02002038B5154BB4
:1037A8001A88154BDA63154A12889A63144A1288E4
:1037B8005A63144C226A1449144B01FB0232120B4F
:1037C8006261626A01FB0232120BA261A26A01FB0A
:1037D80002331B0BE36104F10C05294604F11400C4
:1037E800FFF758FC214631F8042B2846FFF762FC06
:1037F80038BD00BFC2020020002C0140C0020020DA
:10380800BE02002050020020B0AD0100A06B15F3ED
:103818000144B1F5B47F39DBA1F5B4718BB24748E7
:10382800A0FB03035B0946480380B32933DC454BFF
:1038380033F8113002FB03F34FF4347000FB03F349
:103848009B0C034440480380772934DC01F13C0396
:103858003C4830F8133002FB03F34FF4347000FB9C
:1038680003F39B0CC31A394803803B2946DC7831A3
:10387800344B33F8113002FB03F34FF4347202FB7C
:1038880003F39B0C1344324A138070470029C5DAAE
:1038980001F5B471C2E7A1F1B4032A4830F8133036
:1038A80002FB03F34FF4347000FB03F39B0CC31AC1
:1038B80025480380C8E7B1F5967F0FDAA1F17803B0
:1038C800204830F8133002FB03F34FF4347000FB48
:1038D80003F39B0C03441D480380C6E7A1F59673C8
:1038E800184830F8133002FB03F34FF4347000FB30
:1038F80003F39B0CC31A15480380B6E7EF290EDCC7
:103908003C39104B33F8113002FB03F34FF4347297
:1039180002FB03F39B0CD31A0D4A13807047F0394E
:10392800084B33F8113002FB03F34FF4347202FBF7
:1039380003F39B0C1344064A1380704789888888D0
:10394800BC020020883B0008C2020020C002002000
:10395800BE0200200D488546FEF7D2F90C480D49F5
:103968000D4A002302E0D458C4500433C4188C42D2
:10397800F9D30A4A0A4C002301E013600432A24238
:10398800FBD300F019F8FCF763FEFEE70000022005
:10399800000000203C000020003D00083C00002002
:1039A800C4020020FEE702440346934200D1704758
:1039B80003F8011BF9E7000070B50D4D0D4C641BB1
:1039C800A4100026A64209D10B4D0C4C00F018F8A3
:1039D800641BA4100026A64205D170BD55F8043B0F
:1039E80098470136EEE755F8043B98470136F2E769
:1039F800F83C0008F83C0008F83C0008FC3C0008CB
:103A0800F8B500BFF8BC08BC9E467047F8B500BFC3
:083A1800F8BC08BC9E46704793
:103A2000010002000400060008000A000C0010005B
:103A3000200040008000000100000000010203049B
:103A4000000000000000000001020304060708094E
:103A5000706F776572206F6E0000000069646C659E
:103A600000000000454E434F4445524120726973A7
:103A7000696E67007761697420666F7220454E43F6
:103A80004F44455242000000454E434F4445524288
:103A90002066616C6C696E67000000007761697474
:103AA00020666F7220454E434F444552410000004E
:103AB000636F756E7420757000000000636F756E23
:103AC0007420646F776E00006E6F6E6500000000FA
:103AD0000000120024003600470059006B007D00F2
:103AE0008F00A000B200C300D500E600F800090175
:103AF0001A012B013C014D015E016F018001900113
:103B0000A001B101C101D101E101F00100020F02E8
:103B10001F022E023D024B025A0268027602840204
:103B20009202A002AD02BA02C702D402E102ED0283
:103B3000F902050310031C03270332033C03470368
:103B400051035B0364036E037703800388039003D0
:103B50009803A003A703AF03B503BC03C203C803C4
:103B6000CE03D303D803DD03E203E603EA03ED0348
:103B7000F003F303F603F803FA03FC03FE03FF0369
:103B8000FF0300040004000000001E003D005B0075
:103B90007A009800B700D500F300110130014E0102
:103BA0006C018A01A801C601E30101021E023C0268
:103BB000590276029302B002CD02E9020603220303
:103BC0003E035A0376037E0386038D0395039C030D
:103BD000A303AA03B003B703BD03C303C803CE0303
:103BE000D303D703DC03E003E503E903EC03EF03AE
:103BF000F203F503F703FA03FC03FD03FE03FF03DF
:103C000000040004000400040004FE03FD03FC03A0
:103C1000FA03F703F503F203EF03EB03E703E30310
:103C2000DE03D903D403CE03C803C103BA03B4032C
:103C3000AC03A4039C0393038A03810377038103EA
:103C40008A0393039C03A403AC03B403BA03C10324
:103C5000C803CE03D403D903DE03E303E703EB0376
:103C6000EF03F203F503F703FA03FC03FD03FE037E
:103C700000040004000400040004FF03FE03FD032D
:103C8000FC03FA03F703F503F203EF03EC03E90384
:103C9000E503E003DC03D703D303CE03C803C30368
:103CA000BD03B703B003AA03A3039C0395038D03CD
:103CB00086037E0376035A033E0322030603E902CA
:103CC000CD02B0029302760259023C021E020102AA
:103CD000E301C601A8018A016C014E013001110106
:103CE000F300D500B70098007A005B003D001E008D
:083CF000F8C5FF7F0100000090
:043CF800FD010008C2
:043CFC00D9010008E2
:103D000001000000100000000024F4001400000076
:103D10005A0000000004000001000000FF00000045
:103D20000000000000000000000000000100000092
:0C3D300000000000000000000000000087
:040000050800395D59
:00000001FF
