:020000040800F2
:1000000000000220AD2C00088D0600088F060008B5
:1000100091060008930600089506000800000000FD
:10002000000000000000000000000000970600082B
:1000300099060008000000009B0600089D060008C5
:10004000FD2C0008FD2C0008FD2C0008FD2C0008EC
:10005000FD2C0008FD2C0008FD2C0008FD2C0008DC
:10006000FD2C0008FD2C0008FD2C0008FD2C0008CC
:10007000FD2C0008FD2C0008FD2C0008FD2C0008BC
:10008000FD2C0008FD2C0008FD2C0008FD2C0008AC
:10009000FD2C0008FD2C0008FD2C0008FD2C00089C
:1000A000FD2C0008FD2C0008FD2C0008FD2C00088C
:1000B000FD2C0008FD2C0008FD2C0008FD2C00087C
:1000C000FD2C0008FD2C0008FD2C0008FD2C00086C
:1000D000FD2C0008FD2C0008FD2C0008FD2C00085C
:1000E000A5060008FD2C0008FD2C0008FD2C0008CA
:1000F000FD2C0008FD2C0008FD2C0008FD2C00083C
:10010000FD2C0008FD2C0008FD2C0008FD2C00082B
:10011000FD2C0008FD2C0008FD2C0008FD2C00081B
:10012000FD2C0008FD2C0008FD2C0008FD2C00080B
:10013000FD2C0008FD2C0008FD2C0008FD2C0008FB
:10014000FD2C0008FD2C0008FD2C0008FD2C0008EB
:10015000FD2C0008FD2C0008FD2C0008FD2C0008DB
:10016000FD2C0008FD2C0008FD2C0008FD2C0008CB
:10017000FD2C0008FD2C0008FD2C0008FD2C0008BB
:10018000FD2C0008FD2C0008FD2C0008FD2C0008AB
:10019000FD2C000800000000FD2C0008FD2C0008CC
:1001A000FD2C0008FD2C0008FD2C0008FD2C00088B
:1001B000FD2C0008FD2C0008FD2C0008FD2C00087B
:1001C000FD2C0008FD2C0008FD2C0008FD2C00086B
:0801D000FD2C0008FD2C0008C5
:1001D80010B5054C237833B9044B13B10448AFF379
:1001E80000800123237010BD5C0000200000000087
:1001F800B030000808B5034B1BB103490348AFF3FF
:10020800008008BD0000000060000020B030000839
:1002180053B94AB9002908BF00281CBF4FF0FF3165
:100228004FF0FF3000F088B9ADF1080C6DE904CE4D
:1002380000F006F8DDF804E0DDE9022304B07047B9
:100248002DE9F047089D8E4604468846002B4AD182
:100258008A42174662D9B2FA82F64EB1C6F1200335
:1002680001FA06F820FA03F3B74043EA0808B44055
:100278004FEA174E1FFA87FCB8FBFEF1230C0EFB62
:10028800118843EA084301FB0CF29A4209D9FB188A
:1002980001F1FF3080F0EA809A4240F2E7800239AB
:1002A8003B449A1AA3B2B2FBFEF00EFB102243EABB
:1002B800024300FB0CFC9C4509D9FB1800F1FF32F6
:1002C80080F0D6809C4540F2D3803B44023840EA17
:1002D8000140A3EB0C0300211DB1F3400022C5E946
:1002E8000032BDE8F0878B4205D90DB1C5E90001A0
:1002F80000210846F5E7B3FA83F1002946D1734592
:1003080002D3824200F20581841A6EEB03020120B7
:100318009046002DE5D0C5E90048E2E7002A00F044
:100328009080B2FA82F6002E40F0A4808A1A030C5C
:100338004FEA174E80B2BCB20121B2FBFEFC0EFBA5
:100348001C2243EA024304FB0CF29A4207D9FB1829
:100358000CF1FF3802D29A4200F2E080C4469B1AA0
:10036800B3FBFEF20EFB123340EA034302FB04F434
:100378009C4207D9FB1802F1FF3002D29C4200F2DE
:10038800CA8002461B1B42EA0C40A5E7C1F12006C1
:100398008B4022FA06F71F430EFA01F420FA06F3FF
:1003A8002EFA06FE4FEA1749234300FA01F81FFA0E
:1003B80087FCBEFBF9F01C0C09FB10EE44EA0E4466
:1003C80000FB0CFEA64502FA01F209D93C1900F11E
:1003D800FF3A80F09C80A64540F2998002383C4460
:1003E800A4EB0E041FFA83FEB4FBF9F309FB1344D4
:1003F8004EEA044403FB0CFCA44508D93C1903F15C
:10040800FF3E80F08280A4457FD9023B3C4443EA0A
:100418000040A4EB0C04A0FB02EC64457346E146E3
:1004280062D35FD05DB1B8EB030264EB090404FA50
:1004380006F622FA01F31E43CC40C5E90064002108
:100448004FE7B1FBF2FC010C41EA0E4180B240EAF1
:1004580001423B4638463C46B846BE462026B1FBDC
:10046800F7F1A2EB080241EA0C4166E7014618E7FA
:1004780010462CE7C6F120022EFA02F3B740B1402D
:1004880020FA02F24FEA174E0A43B3FBFEF8BCB259
:100498000EFB1833110C41EA034108FB04F9B04084
:1004A80089454FEA104380B23ED9791808F1FF3CDC
:1004B80001D289451FD8A1EB0901B1FBFEF909FB5F
:1004C80004F80EFB191192B242EA0142424529D2C0
:1004D800BA1809F1FF31C4D24245C2D2A9F10201CA
:1004E8003A44BEE7F0459DD2BEEB02036CEB070C25
:1004F8000138E14696E7A7EB09094944A8F1020C3F
:10050800B1FBFEF909FB04F8DBE773467FE75046C9
:1005180066E70846FDE63B44023A33E7ACF1020CD5
:100528003B441CE749469CE7A1EB0901C446B1FBE3
:10053800FEF909FB04F8C4E7704700BF72B6FEE78E
:1005480000B595B03822002106A802F0DBFC002097
:100558000190029003900490059000F00BFF022395
:1005680006934FF48072099240220A920D930E93DB
:1005780004220F925522109211931293139306A8F6
:1005880000F00AFA80B90F23019303230293002392
:1005980003930493059304210DEB010000F0B2FCD2
:1005A80020B915B05DF804FBFFF7C8FFFFF7C6FFD9
:1005B80008B500F0A3F9FFF7C3FF00F021F801F038
:1005C80085FC01F08DFB01F059FB002000F0C4F818
:1005D8000121002000F0E4F808494FF4E1330B60F2
:1005E8000020486008814881888100F045F910B9E9
:1005F80002F034FBFCE7FFF7A1FF00BF7800002002
:1006080030B58BB000240594069407940894099497
:100618001A4BDA6C42F00402DA64DA6C02F0040273
:100628000192019ADA6C42F02002DA64DA6C02F084
:1006380020020292029ADA6C42F00102DA64DA6C61
:1006480002F001020392039ADA6C42F00202DA64C1
:10065800DB6C03F002030493049B094D224601213D
:10066800284600F05FFE012305930693079408943B
:1006780005A9284600F06CFD0BB030BD0010024003
:1006880000040048FEE7FEE7FEE7FEE7FEE77047E6
:100698007047704708B500F041F908BD08B500205B
:1006A80000F0C2F808BD000000B583B00B4B1A6E0D
:1006B80042F001021A661A6E02F001020092009AD4
:1006C8009A6D42F080529A659B6D03F080530193B6
:1006D800019B00F0D5FE03B05DF804FB001002405A
:1006E80030B589B01B4BDA6C42F00102DA64DA6C7F
:1006F80002F001020092009ADA6C42F00102DA6418
:10070800DA6C02F001020192019ADA6D42F00102FC
:10071800DA65DB6D03F001030293029B0423039364
:10072800022404940694012305930C2507950DEBE8
:1007380005014FF0904000F00BFD0823039304944B
:1007480007950DEB05014FF0904000F001FD09B051
:1007580030BD00BF0010024030B587B00F4BDA6CD7
:1007680042F00102DA64DB6C03F001030093009BA2
:100778002025019501230293002403940323049365
:1007880001A94FF0904000F0E3FC224629464FF0C3
:10079800904000F0C7FD204607B030BD0010024071
:1007A80010B586B01B4BDA6C42F00402DA64DB6CDD
:1007B80003F004030093009B4FF4005301930223BA
:1007C8000393049341B90023029301A9124800F04E
:1007D800BFFC002006B010BD04464FF488130293F6
:1007E80001A90D4800F0B4FC0C4B03EBC4040C4900
:1007F800204600F0A4FD0B4A0021204600F097FD9A
:1008080000220F21282000F097FE282000F0A4FEE7
:10081800DFE700BF00100240000800481C0100206C
:100828000D0000064708000808B5034B03EBC0009D
:1008380000F08CFD08BD00BF1C010020704708B502
:100848000020FFF7FBFF08BD08B50A4A02600A68E6
:1008580042600C2242614A8902614A6882600A89C0
:10086800C2608A8982614FF40042C26101F095F941
:1008780008BD00BF0080004001280ED838B50D46DD
:100888009423094C03FB00442046FFF729FF29461F
:100898002046FFF7D9FF18B938BD6FF0010070473F
:1008A8006FF00300F8E700BF88000020104B1B68BA
:1008B8000BB90120704710B504464FF47A70B0FBAD
:1008C800F3F30C4A1068B0FBF3F000F049FE68B986
:1008D8000F2C01D901200AE0002221464FF0FF30F9
:1008E80000F02AFE044B1C60002000E0012010BD2F
:1008F80000000020080000200400002010B503209C
:1009080000F008FE0020FFF7D1FF10B101242046B7
:1009180010BD0446FFF7C8FEF9E70000034A136854
:10092800034909680B441360704700BF2401002085
:1009380000000020014B1868704700BF2401002008
:10094800124BDA6802F00302DB68C3F303130133C6
:10095800032A11D00E48B0FBF3F00C4BDB68C3F34D
:10096800062303FB00F0094BDB68C3F34163013343
:100978005B00B0FBF3F070470648B0FBF3F0034BA5
:10098800DB68C3F3062303FB00F0ECE7001002402A
:100998000024F40000366E01002800F04F8270B584
:1009A80082B00446036813F0010F37D0A44A936855
:1009B80003F00C03D26802F003020C2B23D0082B9F
:1009C80023D06368B3F5803F4ED0B3F5A02F51D044
:1009D8009B4B1A6822F480321A601A6822F480222B
:1009E8001A606368002B52D0FFF7A4FF0546944BAA
:1009F8001B6813F4003F11D1FFF79CFF401B6428CC
:100A0800F5D9032023E2032AD9D18D4B1B6813F4AF
:100A1800003F03D06368002B00F01282236813F0B4
:100A2800020F5DD0864A936803F00C03D26802F087
:100A380003020C2B3AD0042B3AD0E368002B75D074
:100A48007F4A136843F480731360FFF773FF05460A
:100A58007B4B1B6813F4806F5FD1FFF76BFF401B64
:100A68000228F5D90320F2E1754A136843F480336C
:100A78001360B6E703F18043A3F53C331A6842F4E8
:100A880080221A601A6842F480321A60A9E7FFF7D8
:100A980051FF05466A4B1B6813F4003FBED0FFF7B1
:100AA80049FF401B6428F5D90320D0E1022AC2D1AE
:100AB800634B1B6813F4806F03D0E368002B00F0CE
:100AC800C1815F4A536823F0FE43216943EA016309
:100AD80053605C4B1868FFF7E9FE002840F0B481CA
:100AE800236813F0080F4CD063699BB3544AD2F8BB
:100AF800943043F00103C2F89430FFF71BFF05461A
:100B08004F4BD3F8943013F0020F3AD1FFF712FF8E
:100B1800401B0228F4D9032099E1494A536823F07D
:100B2800FE43216943EA01635360D9E7444A1368E5
:100B380023F480731360FFF7FDFE0546404B1B68E6
:100B480013F4806FCCD0FFF7F5FE401B0228F5D9CF
:100B580003207CE13A4AD2F8943023F00103C2F82A
:100B68009430FFF7E7FE0546354BD3F8943013F081
:100B7800020F06D0FFF7DEFE401B0228F4D903203F
:100B880065E1236813F0040F00F081802C4B9B6D06
:100B980013F0805F36D12A4B9A6D42F080529A65E5
:100BA8009B6D03F080530193019B0125264B1B6825
:100BB80013F4807F28D0A368012B39D0052B45D0AA
:100BC8001F4BD3F8902022F00102C3F89020D3F8ED
:100BD800902022F00402C3F89020A368002B43D091
:100BE800FFF7A8FE0646164BD3F8903013F0020F15
:100BF8004CD1FFF79FFE801B41F288339842F2D90F
:100C0800032024E10025D1E70F4A136843F48073D9
:100C18001360FFF78FFE06460B4B1B6813F4807FAB
:100C2800C9D1FFF787FE801B0228F5D903200EE102
:100C3800034AD2F8903043F00103C2F89030CCE771
:100C4800001002400400002000700040884BD3F8D8
:100C5800902042F00402C3F89020D3F8902042F08C
:100C68000102C3F89020B8E7FFF764FE0646804B00
:100C7800D3F8903013F0020F08D0FFF75BFE801B0B
:100C880041F288339842F2D90320E0E0E5B92368BD
:100C980013F0200F35D0A369E3B1754AD2F8983024
:100CA80043F00103C2F89830FFF744FE0546704B45
:100CB800D3F8983013F0020F23D1FFF73BFE401B07
:100CC8000228F4D90320C2E0694A936D23F08053C7
:100CD8009365DCE7664AD2F8983023F00103C2F83E
:100CE8009830FFF727FE0546614BD3F8983013F08C
:100CF800020F06D0FFF71EFE401B0228F4D903207E
:100D0800A5E0E369002B00F0A180594A926802F03F
:100D18000C020C2A64D0022B13D0554A136823F016
:100D280080731360FFF706FE0446514B1B6813F0EF
:100D3800007F4ED0FFF7FEFD001B0228F5D90320E7
:100D480085E04B4A136823F080731360FFF7F2FDC8
:100D58000546474B1B6813F0007F06D0FFF7EAFDF6
:100D6800401B0228F5D9032071E0414AD368414964
:100D78001940236A606A013843EA0013A06A43EA0B
:100D88000023206B4008013843EA4053606B400859
:100D9800013843EA4063E06A43EAC0631943D1601B
:100DA800136843F080731360D36843F08073D36093
:100DB800FFF7C0FD04462E4B1B6813F0007F06D1D9
:100DC800FFF7B8FD001B0228F5D903203FE00020FB
:100DD8003DE0274AD168284B0B40D360002036E01D
:100DE800012B36D0224BDB6803F00301226A9142C3
:100DF80031D103F0F002616A0139B2EB011F2CD145
:100E080003F4FE42A16AB2EB012F28D103F0784225
:100E1800E16AB2EBC16F24D103F4C001226B52081E
:100E2800013AB1EB425F1ED103F0C063626B520816
:100E3800013AB3EB426F18D1002008E00120704757
:100E4800012004E0012002E0012000E0002002B0BF
:100E580070BD0120FBE70120F9E70120F7E7012039
:100E6800F5E70120F3E70120F1E70120EFE700BFF4
:100E7800001002400C809F01FCFFEEFE1E4B9B6899
:100E880003F00C03042B33D01B4B9B6803F00C03BB
:100E9800082B2FD0184B9B6803F00C030C2B01D0A8
:100EA80000207047144BDA6802F00302DB68C3F3D2
:100EB80003130133032A11D01048B0FBF3F00E4B93
:100EC800DB68C3F3062303FB00F00B4BDB68C3F3BB
:100ED800416301335B00B0FBF3F070470848B0FB97
:100EE800F3F0054BDB68C3F3062303FB00F0ECE7E4
:100EF8000248704702487047001002400024F4007E
:100F080000366E01002800F0E680F8B50C4605466C
:100F1800744B1B6803F00F038B420BD2714A1368A2
:100F280023F00F030B431360136803F00F038B4286
:100F380040F0D3802E6816F001065FD06B68032B53
:100F48002FD0022B4DD0684B1B6813F4806F00F034
:100F5800C680FFF793FF654B98424DD9624A936864
:100F680023F0F00343F08003936080265E4A936881
:100F780023F0030369680B439360FFF7DBFC074624
:100F8800594B9B6803F00C036A68B3EB820F35D0AA
:100F9800FFF7D0FCC01B41F288339842F0D90320F8
:100FA80078E0514B1B6813F0007F01D1012071E0FC
:100FB800FFF7C6FC4D4B98421AD94B4B9B6813F070
:100FC800F00F05D02E6816F00206CFD0AB688BB9AB
:100FD800454A936823F0F00343F08003936080262A
:100FE800C4E7414B1B6813F4003FB2D1012051E024
:100FF8000026BBE70026B9E70026B7E72B6813F001
:10100800020F48D013F0040F04D0374A936843F412
:10101800E06393602B6813F0080F06D0324A936898
:1010280023F47C5343F4E06393602F4A936823F0DE
:10103800F003A9680B4393602A4B1B6803F00F0366
:10104800A34230D82B6813F0040F06D0264A9368C1
:1010580023F4E063E9680B4393602B6813F0080FEF
:1010680007D0214A936823F46053296943EAC103EE
:101078009360FFF703FF1C4B9B68C3F303131C4AE1
:10108800D35C03F01F03D8401A4B18601A4B18683A
:10109800FFF70CFCF8BD802ECED1134A936823F0DD
:1010A800F0039360C8E70F4A136823F00F03234344
:1010B8001360FFF73FFC06460A4B1B6803F00F035B
:1010C800A342BFD0FFF736FC801B41F28833984219
:1010D800F2D90320DEE7012070470120DAE701207A
:1010E800D8E700BF002002400010024000B4C4044A
:1010F800FC3000080800002004000020014B18689C
:10110800704700BF0800002008B5FFF7F7FF054B40
:101118009B68C3F30223044AD35C03F01F03D8403F
:1011280008BD00BF00100240F430000808B5FFF702
:10113800E5FF054B9B68C3F3C223044AD35C03F065
:101148001F03D84008BD00BF00100240F43000085B
:10115800F0B583B0002362E085685E000324B440E4
:1011680025EA0405CC68B4402C438460456825EA28
:101178000C054C68C4F300149C402C4344605FE0A9
:10118800DD08083550F8254003F0070C4FEA8C0CB1
:101198004FF00F0E0EFA0CFE24EA0E0E0C6904FA3C
:1011A8000CF444EA0E0440F8254060E0052400E011
:1011B800002404FA0EF42C430CF1020C554D45F8AA
:1011C8002C40554CA568D44325EA02064F6817F40D
:1011D800801F01D042EA05064F4DAE60ED6804EA73
:1011E80005064F6817F4001F01D042EA05064A4D6C
:1011F800EE606D6804EA05064F6817F4003F01D0F9
:1012080042EA0506444D6E602D682C404E6816F47F
:10121800803F01D042EA05043F4A146001330A685E
:1012280032FA03F474D04FF0010C0CFA03FC1CEAF8
:101238000202F3D04C6804F00304013C012C8BD962
:101248004C6804F00304032C0CD0C4685D004FF014
:10125800030C0CFA05FC24EA0C0C8C68AC4044EA3C
:101268000C04C4604C6804F00304022C88D00468A1
:101278004FEA430E4FF0030C0CFA0EFC24EA0C0C58
:101288004C6804F0030404FA0EF444EA0C04046005
:101298004C6814F4403FC1D0204C256E45F0010540
:1012A8002566246E04F001040194019C4FEA930C16
:1012B8000CF10205174C54F8255003F0030E4FEAC1
:1012C8008E0E0F2404FA0EF425EA0405B0F1904FAF
:1012D8003FF46EAF124CA04212D004F58064A042D5
:1012E80010D004F58064A0420ED004F58064A042BA
:1012F8000CD004F58064A0423FF458AF062458E7A8
:10130800012456E7022454E7032452E7042450E753
:1013180003B0F0BD0000014000040140001002408D
:10132800000400480AB1816170478162704711B9B1
:10133800426008467047002343600120704710B19F
:1013480001600020704701207047000010B5036855
:10135800C3F3004203F01F03012199405301044ADB
:101368009C580C4203D09950436803B1984710BD6C
:1013780014040140002836D13E4B1B6803F4C063B7
:10138800B3F5806F08D03B4AD2F8803023F48073DD
:10139800C2F8803000207047364AD2F8803023F4F3
:1013A8008073C2F88030136823F4C06343F4007379
:1013B8001360314B1B68322202FB03F32F4AA2FB56
:1013C80003239B0C013300E0013B2A4A526912F4C3
:1013D800806F01D0002BF7D1264B5B6913F4806F27
:1013E80044D100207047B0F5007F08D0214A136827
:1013F80023F4C06343F480631360002070471D4BDF
:101408001B6803F4C063B3F5806F08D0194AD2F89B
:10141800803043F48073C2F8803000207047154A4A
:10142800D2F8803043F48073C2F88030136823F414
:10143800C06343F4007313600F4B1B68322202FB36
:1014480003F30E4AA2FB03239B0C013300E0013B8C
:10145800084A526912F4806F01D0002BF7D1054B6E
:101468005B6913F4806F03D1002070470320704735
:1014780003207047007000400800002083DE1B43F3
:10148800024A936843F480439360704700700040B9
:10149800002807DB00F01F02400901239340024A9D
:1014A80042F82030704700BF00E100E0002808DB68
:1014B8000901C9B200F1604000F5614080F80013ED
:1014C800704700F00F000901C9B2014B1954704769
:1014D80014ED00E000B500F00700C0F1070CBCF106
:1014E800040F28BF4FF0040C031D062B0FD9C31E91
:1014F8004FF0FF3E0EFA0CF021EA000199400EFA77
:1015080003FE22EA0E0241EA02005DF804FB002312
:10151800EEE70000074AD36823F4E0631B041B0CC2
:10152800000200F4E060034343F0BF6343F4003378
:10153800D360704700ED00E010B50446054BD8684D
:10154800C0F30220FFF7C6FF01462046FFF7AEFFB3
:1015580010BD00BF00ED00E008B5FFF799FF08BD1A
:101568000138B0F1807F0BD24FF0E0235861054A73
:10157800F02182F823100020986107221A61704731
:101588000120704700ED00E0026852E8003F23F4B4
:10159800907342E800310029F6D1026802F108038D
:1015A80053E8003F23F0805323F00103083242E858
:1015B80000310029F1D1C36E012B06D02023C0F8D9
:1015C8008C300023C36643677047026852E8003FC7
:1015D80023F0100342E800310029F6D1EEE7704706
:1015E80070B5044683680269134342691343C269AC
:1015F800134301680868964A02401A430A60226841
:10160800536823F44053E1680B435360A16922688F
:10161800904B9A4201D0236A1943936823F06E4392
:1016280023F430630B4393602268D36A23F00F03DB
:10163800616A0B43D3622368874A934226D0874A5C
:10164800934237D0864A93424DD0864A93425DD022
:10165800854A93426CD07F4A93427ED010227D49BE
:101668008B4200F0B380E069B0F5004F00F00481D0
:10167800082A00F26F81DFE812F0320154013001CC
:101688006D0157016D016D016D015A0102F5584256
:10169800D2F8882002F00302032A09D8DFE802F012
:1016A800020472060122DAE70422D8E70822D6E704
:1016B8001022D4E702F5E632D2F8882002F00C02B4
:1016C8000C2A0ED8DFE802F0070D0D0D090D0D0DDF
:1016D800600D0D0D0B000022C1E70422BFE70822B0
:1016E800BDE71022BBE702F5E432D2F8882002F009
:1016F8003002202A4AD005D8002A49D0102A49D1D8
:101708000422ACE7302A47D10822A8E702F5E232E2
:10171800D2F8882002F0C002802A3FD004D8FAB359
:10172800402A3FD104229AE7C02A3DD1082296E7F1
:1017380002F5E032D2F8882002F44072B2F5007F58
:1017480034D005D8A2B3B2F5807F33D1042286E71E
:10175800B2F5407F30D1082281E702F5C832D2F8CD
:10176800882002F44062B2F5006F27D005D83AB35A
:10177800B2F5806F26D1042271E7B2F5406F23D10C
:1017880008226CE702226AE7022268E7022266E77B
:10179800002264E7102262E7102260E702225EE777
:1017A80000225CE710225AE7102258E7022256E787
:1017B800002254E7102252E7102250E702224EE797
:1017C80000224CE710224AE7102248E7082A00F2D4
:1017D800B180DFE802F008AF3BAF38AFAFAF05002C
:1017E8004FF4004004E0FFF78FFC002800F0A480CD
:1017F800626A1E4B33F81220B0FBF2F3656805EB02
:101808004501994200F29A80B3EB053F00F29880B7
:10181800002633463146FEF7FBFC090241EA106117
:1018280000026B08C0182A46334641F10001FEF752
:10183800EFFCA0F540720E4B9A4200F283802368B9
:10184800D860304664E0FFF719FBCEE70948CFE7D8
:10185800F369FFCF00800040003801400044004099
:1018680000480040004C004000500040DC300008B8
:10187800FFFC0F000024F400082A65D8DFE802F016
:10188800072705642A6464640B00354803E0FFF702
:101898003BFC00285AD0626A324B33F81230B0FB56
:1018A800F3F06268530803EB4003B3FBF2F3A3F1D0
:1018B80010014FF6EF7291424AD89AB222F00F0205
:1018C800C3F3420313432268D360002020E0FFF7EC
:1018D8002DFCDEE7FFF7D2FADBE7214803E0FFF74C
:1018E80013FC002838D0626A1E4B33F81230B0FB64
:1018F800F3F0636800EB5300B0FBF3F0A0F11002C3
:101908004FF6EF739A4229D8236880B2D860002036
:101918000123A4F86A30A4F8683000236367A3673A
:1019280070BDFFF703FCDCE7FFF7A8FAD9E74FF42F
:101938000040D8E70120EBE70020E9E70120E7E7CE
:101948000120E5E70120E3E70120E1E70020DFE7E8
:101958000120DDE70120DBE70020D9E70120D7E7F8
:101968000024F400DC300008836A13F0080F06D066
:101978000268536823F40043816B0B435360836A06
:1019880013F0010F06D00268536823F40033C16ACC
:101998000B435360836A13F0020F06D00268536842
:1019A80023F48033016B0B435360836A13F0040FF5
:1019B80006D00268536823F48023416B0B435360BD
:1019C800836A13F0100F06D00268936823F48053DB
:1019D800C16B0B439360836A13F0200F06D0026833
:1019E800936823F40053016C0B439360836A13F0EC
:1019F800400F0AD00268536823F48013416C0B43EC
:101A08005360436CB3F5801F0BD0836A13F0800FCB
:101A180006D00268536823F40023C16C0B4353605B
:101A280070470268536823F4C003816C0B4353600A
:101A3800EBE72DE9F84305460E4617469946DDF8CB
:101A480020802B68DC6936EA04040CBF01240024DA
:101A5800BC4236D1B8F1FF3FF3D0FEF76BFFA0EBE5
:101A68000900404530D8B8F1000F2FD02B681A680C
:101A780012F0040FE5D0802EE3D0402EE1D0DA69D1
:101A880012F0080F11D1DA6912F4006FD9D04FF4AF
:101A980000621A622846FFF777FD2023C5F89030C8
:101AA800002385F8843003200CE008241C622846B3
:101AB800FFF76AFDC5F89040002385F884300120BF
:101AC80000E00020BDE8F8830320FBE70320F9E7E6
:101AD80030B583B004460023C0F89030FEF72AFFE3
:101AE80005462268126812F0080F10D123681B6897
:101AF80013F0040F28D12023C4F88830C4F88C30A0
:101B08000020E066206784F8840003B030BD6FF0E1
:101B18007E430093034600224FF400112046FFF74E
:101B280088FF0028E2D0226852E8003F23F08003B3
:101B380042E800310029F6D12023C4F88830002378
:101B480084F884300320E0E76FF07E4300932B464F
:101B580000224FF480012046FFF76BFF0028CAD00F
:101B6800226852E8003F23F4907342E800310029CC
:101B7800F6D1226802F1080353E8003F23F001037D
:101B8800083242E800310029F3D12023C4F88C3010
:101B9800002384F884300320B7E778B310B50446EF
:101BA800D0F888300BB32423C4F88830226813682F
:101BB80023F001031360A36AE3B92046FFF710FD81
:101BC800012811D02268536823F490435360226897
:101BD800936823F02A0393602268136843F0010393
:101BE80013602046FFF774FF10BD80F88430FFF7BC
:101BF800F6FCD8E72046FFF7B7FEDEE7012070477E
:101C0800034AD2F8883043F47003C2F8883070472A
:101C180000ED00E010B503460C4A0D490D48006878
:101C280040B10C4800680344521A934206D8094A46
:101C3800136010BD0748084C0460F2E701F0BEF9D4
:101C48000C2303604FF0FF30F3E700BF00000220D1
:101C580000040000280100206003002001207047D4
:101C680008B501F0ABF9162303604FF0FF3008BD4B
:101C780008B54FF0FF31FFF7F3FFFEE700B58DB071
:101C88002422002103A801F03DF9002300930193C9
:101C980002931148114A0260436083604FF0FF329B
:101CA800C26003618361012303930593099303A928
:101CB80000F00CFC50B900230093029369460648D3
:101CC80000F0AEFE28B90DB05DF804FBFEF736FC57
:101CD800F1E7FEF733FCF6E778010020000C00403E
:101CE80000B589B0002304930593069307930193E5
:101CF800029303931048114A0260436083604FF6D1
:101D0800FF72C26003614361836104A900F018FE99
:101D180060B95023019300230293039301A9064855
:101D280000F07EFE28B909B05DF804FBFEF706FC5A
:101D3800EFE7FEF703FCF6E72C0100200034014032
:101D48000268094B9A4200D0704782B003F5644399
:101D58001A6E42F400621A661B6E03F40063019364
:101D6800019B02B0704700BF002C014000B589B04C
:101D78000023039304930593069307930268124B79
:101D88009A4202D009B05DF804FB03F501339A6D5D
:101D980042F008029A659A6D02F008020192019ACF
:101DA800DA6C42F00102DA64DB6C03F0010302939F
:101DB800029B0323039302230493079303A94FF081
:101DC8009040FFF7C5F9DDE7000C004000B589B089
:101DD8000023039304930593069307930268134B18
:101DE8009A4202D009B05DF804FB03F55C431A6E11
:101DF80042F400521A661A6E02F400520192019AD5
:101E0800DA6C42F00402DA64DB6C03F00403029338
:101E1800029B4FF4E0730393022304930423079374
:101E280003A90348FFF794F9DCE700BF0034014039
:101E380000080048F0B589B0002303930493059384
:101E48000693079302681F4B9A4201D009B0F0BD70
:101E580003F56443DA6C42F00202DA64DA6C02F0E9
:101E680002020192019ADA6C42F00102DA64DB6C38
:101E780003F001030293029B4FF4C043039302252E
:101E8800049506260796104F03A93846FFF760F910
:101E98004FF4004303930495002405940694042307
:101EA800079303A93846FFF753F94FF4E063039308
:101EB800049505940694079603A94FF09040FFF700
:101EC80047F9C3E7002C01400004004810B59CB056
:101ED8000024189419941A941B9415941694179422
:101EE8000E940F9410941194129413941494342211
:101EF800214601A801F006F83B483C4B03604460CA
:101F080084604FF6FF73C36004614461846100F02C
:101F18007DFA00284FD14FF48053189318A93248FE
:101F280000F064FC002849D12F4800F09FFA0028EF
:101F380047D1002315931693179315A92A4800F043
:101F48006FFD002840D160230E9300220F9210925B
:101F580011921292139214920EA9234800F05CFB7E
:101F6800002834D104220EA91F4800F055FB002890
:101F780030D108220EA91C4800F04EFB68BB002394
:101F8800019302930393049305934FF4005206922E
:101F98000793089309934FF000720A920B930C93DE
:101FA8000D9301A9104800F091FDC8B90E48FFF73C
:101FB80041FF1CB010BDFEF7C1FAACE7FEF7BEFA50
:101FC800B2E7FEF7BBFAB4E7FEF7B8FABBE7FEF7ED
:101FD800B5FAC7E7FEF7B2FACBE7FEF7AFFACEE7F6
:101FE800FEF7ACFAE2E700BFC4010020002C014074
:101FF80030B4026A036A23F0010303624468836908
:1020080023F4803323F073030D681D4322F002028A
:102018008B681343204A904213D002F50062904225
:102028000FD002F5406290420BD002F580629042D8
:1020380007D002F58062904203D002F50062904218
:1020480005D123F00803CA681A4322F00403124A90
:10205800904213D002F5006290420FD002F5406220
:1020680090420BD002F58062904207D002F5806260
:10207800904203D002F50062904205D124F44074E6
:102088004A6922438C691443446085614A68426303
:10209800036230BC704700BF002C014030B4036AB3
:1020A800026A22F4807202624468C26922F48032B1
:1020B80022F073020D68154323F400738A6843EA1B
:1020C80002231C4A904207D002F50062904203D0D6
:1020D80002F5E052904206D123F40063CA6843EA4D
:1020E800022323F48063134A904213D002F500625E
:1020F80090420FD002F5406290420BD002F5806208
:10210800904207D002F58062904203D002F5006247
:10211800904207D124F440524C6942EA04128C6977
:1021280042EA04144460C5614A68C263036230BC71
:10213800704700BF002C014030B4036A026A22F4E1
:10214800805202624468C26922F0807222F4E64238
:102158000D6842EA052223F400538D6843EA0533EB
:102168001B4DA84207D005F50065A84203D005F528
:10217800E055A84206D123F40043CD6843EA05336D
:1021880023F48043124DA84213D005F50065A842F8
:102198000FD005F54065A8420BD005F58065A8422B
:1021A80007D005F58065A84203D005F50065A8426B
:1021B80007D124F4404C4C694CEA841C8C694CEAE5
:1021C80084144460C2614A680264036230BC704788
:1021D800002C014030B4036A026A22F480320262A1
:1021E8004468026D22F4803222F070020D681543B3
:1021F80023F400338A6843EA0243114A904213D019
:1022080002F5006290420FD002F5406290420BD076
:1022180002F58062904207D002F58062904203D0B6
:1022280002F50062904204D124F480344A6944EAF9
:102238000224446005654A688264036230BC7047C2
:10224800002C014030B4036A026A22F48012026250
:102258004468026D22F0807222F4E0420D6842EA7E
:10226800052223F400138D6843EA0553114DA84253
:1022780013D005F50065A8420FD005F54065A842C2
:102288000BD005F58065A84207D005F58065A84202
:1022980003D005F50065A84204D124F480244D69D3
:1022A80044EA8524446002654A68C264036230BC1B
:1022B800704700BF002C014010B4036A046A24F080
:1022C80001040462846924F0F00C4CEA021223F041
:1022D8000A030B43826103625DF8044B704710B434
:1022E800036A046A24F010040462846924F4704CBC
:1022F8004CEA023223F0A00343EA0113826103622D
:102308005DF8044B7047836823F4401323F070038F
:102318000B4343F0070383607047704703683A4AEA
:10232800904216D0B0F1804F13D0A2F5943290426B
:102338000FD002F5806290420BD002F58062904285
:1023480007D002F59432904203D002F5E052904251
:1023580003D123F070034A6813432B4A904222D0DA
:10236800B0F1804F1FD0A2F5943290421BD002F5F5
:102378008062904217D002F58062904213D002F535
:10238800943290420FD002F5406290420BD002F591
:102398008062904207D002F58062904203D002F535
:1023A8000062904203D123F44073CA68134323F0B8
:1023B80080034A69134303608B68C3620B688362B6
:1023C800114B984213D003F5006398420FD003F5E0
:1023D800406398420BD003F58063984207D003F519
:1023E8008063984203D003F50063984201D10B69DA
:1023F800036301234361036913F0010F03D00369E9
:1024080023F0010303617047002C014060B310B54D
:10241800044690F83D3013B3022384F83D3021463A
:1024280051F8040BFFF77AFF012384F8483084F849
:102438003E3084F83F3084F8403084F8413084F8E6
:10244800423084F8433084F8443084F8453084F8C6
:10245800463084F8473084F83D30002010BD80F8BD
:102468003C30FFF76DFCD7E70120704760B310B52B
:10247800044690F83D3013B3022384F83D302146DA
:1024880051F8040BFFF74AFF012384F8483084F819
:102498003E3084F83F3084F8403084F8413084F886
:1024A800423084F8433084F8443084F8453084F866
:1024B800463084F8473084F83D30002010BD80F85D
:1024C8003C30FFF72AFFD7E701207047002853D098
:1024D800F8B50D46044690F83D30002B47D002234E
:1024E80084F83D302268936823F4A03323F007036F
:1024F8009360214651F8040BFFF710FF21688B68A1
:102508008A690E6A2868184322F4407222F003028E
:10251800AB68AF6943EA0723134323F47C4323F0F2
:10252800FC03EA68EF6942EA07221A432B6A1B0395
:102538002F6943EA0713134326F0AA066A686D69F0
:1025480042EA05123243886021688B6123681A6267
:10255800012384F8483084F83E3084F83F3084F80A
:10256800443084F8453084F83D300020F8BD80F8C8
:102578003C30FFF7FBFBB2E70120704730B4036A39
:10258800026A22F0100202624468826922F08072B4
:1025980022F4E6420D6842EA052223F020038D6802
:1025A80043EA05131B4DA84207D005F50065A8426C
:1025B80003D005F5E055A84206D123F08003CD6885
:1025C80043EA051323F04003124DA84213D005F542
:1025D8000065A8420FD005F54065A8420BD005F567
:1025E8008065A84207D005F58065A84203D005F5A7
:1025F8000065A84207D124F4406C4C694CEA840C6D
:102608008C694CEA8404446082614A68826303628C
:1026180030BC7047002C014038B590F83C30012B95
:1026280000F0958004460D46012380F83C30142ABA
:1026380000F28880DFE802F00B8686861F86868691
:1026480034868686488686865D868686710000681A
:10265800FFF7CEFC2268936943F008039361226870
:10266800936923F0040393612268936929690B43F2
:102678009361002067E00068FFF780FF2268936994
:1026880043F4006393612268936923F48063936140
:1026980022689369296943EA01239361002052E083
:1026A8000068FFF7FBFC2268D36943F00803D36195
:1026B8002268D36923F00403D3612268D3692969A6
:1026C8000B43D36100203EE00068FFF735FD226828
:1026D800D36943F40063D3612268D36923F4806328
:1026E800D3612268D369296943EA0123D3610020B1
:1026F80029E00068FFF76EFD2268136D43F00803B8
:1027080013652268136D23F0040313652268136DA3
:1027180029690B431365002015E00068FFF792FD57
:102728002268136D43F4006313652268136D23F464
:10273800806313652268136D296943EA01231365D1
:10274800002000E00120002384F83C3038BD02203E
:10275800FCE7000070B49446066A046A24F0010499
:1027680004628469184DA8421CD0B0F1804F19D07A
:10277800164A904216D002F58062904212D002F5B5
:10278800806290420ED002F5943290420AD002F54F
:102798004062904206D002F58052904202D044F046
:1027A800010203E024F0030242EA0C0222F0F002E4
:1027B8001B01DBB2134326F00A0201F00A011143A0
:1027C8008361016270BC7047002C01400004004026
:1027D80010B4846824F47F4C42EA03220A4342EA94
:1027E8000C0282605DF8044B7047000090F83C30A2
:1027F800012B00F09B8010B50446012380F83C3083
:10280800022380F83D3002689068494B034093608A
:102818000B68702B61D031D8502B78D01FD8402B43
:102828000AD1CA6849682068FFF746FD4021206838
:10283800FFF769FD002029E074D8202B03D00AD8BF
:102848000BB1102B05D119462068FFF75CFD00205D
:102858001CE001201AE0302BF5D0012016E0602B97
:102868000AD1CA6849682068FFF739FD60212068E5
:10287800FFF749FD002009E0012007E0B3F5005FFC
:1028880038D00AD8B3F5805F4ED10020012384F8F0
:102898003D30002384F83C3010BD264A9342D2D004
:1028A80010D8203A9342CED007D8B3F5801FCAD0AB
:1028B800B3F1101FC7D00120E8E71F4A9342C2D0E6
:1028C8000120E3E71D4A9342BDD010329342BAD0AB
:1028D800203A9342B7D00120D8E7CB684A68896884
:1028E8002068FFF775FF2268936843F077039360C9
:1028F8000020CBE7CB684A6889682068FFF768FF43
:102908002268936843F4804393600020BEE7CA6856
:1029180049682068FFF7D0FC50212068FFF7F3FCD6
:102928000020B3E70120B1E70120AFE7022070479C
:102938008800CEFF4000100030001000600010003A
:1029480000286BD070B588B00E46044690F83D302C
:10295800002B5ED0022384F83D30214651F8040B49
:10296800FFF7DCFCB368032231682068FFF7F2FE4A
:102978002268936923F00C03936122689369716854
:102988000B4393612268536843F0800353602268C5
:10299800936823F4401323F07003936022689368CC
:1029A80043F0400393602268936823F4803323F054
:1029B800070393602268936843F00403936000253B
:1029C8000595069570230193079504950395F3687B
:1029D800029301A92068FFF7D1FD2268536823F00C
:1029E800007323F0700353602268536843F0500368
:1029F8005360012384F8483084F83E3084F83F302F
:102A080084F8443084F8453084F83D30284608B0CE
:102A180070BD80F83C30FFF7D9F99BE7012070477B
:102A280090F83C20012A4CD030B40346012280F8AB
:102A38003C20022280F83D20006842688468224DCC
:102A4800A84207D005F50065A84203D005F5E05572
:102A5800A84203D122F470024D682A4322F0007282
:102A680022F070020D682A4342601A6816488242B2
:102A78001AD0B2F1804F17D0A0F59430824213D00B
:102A880000F5806082420FD000F5806082420BD052
:102A980000F59430824207D000F54060824203D0AE
:102AA80000F58050824204D124F0800489682143D3
:102AB8009160012283F83D20002083F83C0030BC5F
:102AC80070470220704700BF002C014090F83C304E
:102AD800012B4AD010B40246012380F83C30CB6861
:102AE80023F440738868034323F4806348680343EE
:102AF80023F400630868034323F4805308690343FD
:102B080023F400534869034323F48043086B0343C9
:102B180023F47023886943EA004323F08053C8698B
:102B280003431068124CA04207D004F50064A04289
:102B380003D004F5E054A04210D123F470038C6A4A
:102B480043EA045323F080730C6A234323F0007391
:102B58004C6A234323F00053C96A0B4343640020A3
:102B680082F83C005DF8044B70470220704700BFB4
:102B7800002C01404000704708B5B1F1005F03D256
:102B8800880000F0BAF808BDB1F1804F01D300F019
:102B9800C8F800F0C3F8F8B504460E4615461F46B7
:102BA80004E054F8040BB84745F8040BB442F8D1D4
:102BB8002846F8BD08B50846910000F09CF808BD05
:102BC80010B5044601688268521A11B19210FFF7D5
:102BD800F1FF204610BD38B515460C1A042C06DD49
:102BE80022460146284600F073F9281938BD042CFE
:102BF800FBD103681360F8E7F8B5551A0C4B9D42F2
:102C080011D804460E461746A91079B10022FFF7DD
:102C1800B3FF024622601544A56039463046FFF7E7
:102C2800DAFF6060F8BD034800F07EF80022F1E7A3
:102C3800FCFFFF7F0C31000810B582B0044602ABE0
:102C480003E90600002303604360836001EB82020E
:102C5800FFF7D2FF204602B010BD000010B58CB0BF
:102C68000DF1180C0D4C0FCCACE80F002368CCF814
:102C7800003006AB0493052305930BAB04AA06CAE0
:102C880001A8FFF7D9FF0198054B02460299FFF703
:102C980082FF01A8FFF794FF0CB010BDC8300008F0
:102CA8007D2B00080D488546FEF7AAFF0C480D4904
:102CB8000D4A002302E0D458C4500433C4188C428F
:102CC800F9D30A4A0A4C002301E013600432A242F5
:102CD800FBD300F079F9FDF76BFCFEE7000002205A
:102CE800000000205C000020503100085C0000203B
:102CF8005C030020FEE700F01AB8012838BF012065
:102D080010B50446204600F025F800B110BD00F0CB
:102D180011F808B900F016F88047F3E708B500F095
:102D280011F808B500F00EF808B500F00BF800F03F
:102D380019B80000024B1868BFF35B8F704700BFDB
:102D48001002002008B5062000F00CF90120FEF75B
:102D58008FFF0000024B0146186800F02DB800BF35
:102D68000C000020024B0146186800F053B900BF60
:102D78000C00002070B50F4E0C463168054611B99D
:102D880000F00CF930602146284600F007F9431C92
:102D980003D14FF0FF34204670BDC41C24F0030457
:102DA800A042F8D0211A284600F0F8F80130F2D1F4
:102DB800EFE700BF140200202DE9F843CD1C25F0F1
:102DC800030508350C2D38BF0C25002D064601DB00
:102DD800A94204D90C2333600020BDE8F883DFF84A
:102DE800D48000F069F8D8F800301C4644BB294666
:102DF8003046FFF7BFFF431C044658D1D8F80040BF
:102E08002746002F43D1002C4BD023683946304643
:102E180004EB030900F0C2F8814542D121686D1A1C
:102E280029463046FFF7A6FF01303AD023682B44E5
:102E38002360D8F800305A6862BBC8F800700FE009
:102E48002268521B20D40B2A17D96119A342256086
:102E580018BF5960636808BFC8F8001062514B601A
:102E6800304600F02FF804F10B00231D20F0070076
:102E7800C21A1CBF1B1AA350AFE76268A3420CBF5B
:102E8800C8F800205A60EBE723466468AEE73C4682
:102E98007F68B6E71A465B68A342FBD100235360FC
:102EA800DEE70C233360304600F00CF894E7056049
:102EB800D6E700BF18020020014800F0A9B800BFFB
:102EC80058030020014800F0A4B800BF58030020B0
:102ED800884210B501EB020402D98442234607D880
:102EE800431EA14208D011F8012B03F8012FF8E77F
:102EF800024401468A4200D110BD13F8014D02F880
:102F0800014DF7E702440346934200D1704703F8A6
:102F1800011BF9E71F2938B505460C4604D91623C5
:102F280003604FF0FF3038BDC26B12B152F8213048
:102F38004BB9284600F030F8224601462846BDE83D
:102F4800384000F017B8012B0AD0591C03D11623BA
:102F580003600120E7E7002142F824102046984743
:102F68000020E0E7024B01461868FFF7D3BF00BF17
:102F78000C00002038B5074D0023044608461146CA
:102F88002B60FEF76DFE431C02D12B6803B1236052
:102F980038BD00BF54030020FEF760BE38B5064DAB
:102FA8000023044608462B60FEF734FE431C02D17A
:102FB8002B6803B1236038BD54030020014B186807
:102FC800704700BF0C00002070B50D4D0D4C641B00
:102FD800A4100026A64209D10B4D0C4C00F064F851
:102FE800641BA4100026A64205D170BD55F8043B09
:102FF80098470136EEE755F8043B98470136F2E763
:103008004831000848310008483100084C310008B0
:103018007047704738B50546002941D051F8043C3F
:103028000C1F002BB8BFE418FFF746FF1D4A1368B2
:1030380033B9636014602846BDE83840FFF742BFE3
:10304800A34208D9206821188B4201BF19685B6820
:1030580009182160EDE71A465B680BB1A342FAD95B
:1030680011685018A0420BD12068014450188342BF
:103078001160E0D118685B68536008441060DAE7B3
:1030880002D90C232B60D6E7206821188B4204BF95
:1030980019685B68636004BF091821605460CAE757
:1030A80038BD00BF18020020F8B500BFF8BC08BC46
:1030B8009E467047F8B500BFF8BC08BC9E467047EE
:1030C80001000000020000000300000004000000EE
:1030D80005000000010002000400060008000A00C4
:1030E8000C001000200040008000000100000000DB
:1030F80001020304000000000000000001020304B4
:103108000607080963616E6E6F74206372656174E7
:1031180065207374643A3A766563746F72206C61E3
:1031280072676572207468616E206D61785F73697B
:083138007A652829000000005F
:0831400008D1FF7F010000002F
:04314800FD0100087D
:04314C00D90100089D
:1031500001000000100000000024F4001000002016
:10316000000000001C02002084020020EC0200206D
:10317000000000000000000000000000000000004F
:10318000000000000000000000000000000000003F
:10319000000000000000000000000000000000002F
:0C31A00000000000000000000000000023
:0400000508002CAD16
:00000001FF
